:020000040000FA
:100000000C942B0D0C94530D0C94530D0C94530D18
:100010000C94530D0C94530D0C940F320C94530DFF
:100020000C94530D0C94530D0C94530D0C94530DD0
:100030000C94530D0C94530D0C94530D0C94530DC0
:100040000C9466310C94530D0C94E2310C94530DC6
:100050000C94BB310C94530D0C94530D0C94530D14
:100060000C9427320C94530D07634236B79BD8A7E4
:100070001A39685618AEBAAB558C1D3CB7CC5763CD
:10008000BD6DEDFD753EF6177231BF000000803F7B
:1000900008000000BE922449123EABAAAA2ABECD97
:1000A000CCCC4C3E00000080BEABAAAAAA3E000009
:1000B0000000BF000000803F000000000008417801
:1000C000D3BB4387D1133D190E3CC3BD4282AD2B38
:1000D0003E68EC8276BED98FE1A93E4C80EFFFBE30
:1000E00001C4FF7F3F0000000000C2F100CFED001F
:1000F000C2F200D1F000D7F200CFF200D1E100004F
:10010000323032312E30362E32360046572076319C
:100110002E322D5255002863292052495641004D58
:100120006574656F73746174696F6E000083018C10
:1001300001930179017C01810179017C014B01501E
:100140000154019C01A501AE01B601E2FBEAEB00FE
:10015000E2EAEB00E0E2F2EE00F1E5E9F7E0F100BF
:10016000EEF9F3F9E5EDE8E500F22E20F0EEF1FB13
:1001700000B04300B046004B00CFE000ECECD0D123
:1001800000EC00E4E0E2EBE5EDE8E500E2FBF1EE97
:10019000F2E000F0E0E7EDEEF1F2FC00EEF2EDEE61
:1001A000F1E8F22E00E0E1F1EEEBFEF22E00F22E8D
:1001B00020F0EEF1FB00E4E0E2EB2E20C2CF00ECF9
:1001C000C20000E501BF0159016001690120002E54
:1001D000003A00EBEA005554432000F72000EC0001
:1001E000EC2000EC002500E32FEC9A00F100000168
:1001F000CE01006401004D1A03E50100000000007B
:100200000000000000000000000001CD010000001F
:1002100001641A03D3010000000000000000000088
:1002200000000000000416010000000000000400AF
:1002300001000000000000040B01000000000000AD
:10024000033D0100010100C618000000000000008D
:10025000000000000000000000000001CE010001CD
:100260000100262200000000000000000000000045
:1002700000000000000001E00100780100EF18021A
:10028000EC0100370500D618000000000000000057
:100290000001CE0100630100391902CD01006301A4
:1002A00000061903E30100000000000001CD010079
:1002B000780A00DB2303EC010000000000000000CE
:1002C0000000000000000001CD0100780A00EE23CC
:1002D00003EC01000000000000000000000000002E
:1002E0000000033D01000201006819000000000049
:1002F0000000000000000000000000000001CE012E
:1003000000100100092300000000000000000000B0
:100310000000000000000000FFF0EAEEF1F2FC0037
:10032000E8EDE2E5F0F1E8FF00E0E2F2EEE2FBEA00
:10033000EBFEF7E5EDE8E500E2FBEAEB2E20E4E872
:10034000F1EFEBE5FF00E2FBF1EEF2E020EFF0E889
:10035000E1EEF0E000EFE5F0E8EEE420E6F3F0EDAA
:100360002E00EEF7E8F1F2EAE020E6F3F0ED2E00E1
:10037000EEE1EDEEE2EBE5EDE8E500E8EDF4EEF0C0
:10038000ECE0F6E8FF0000032D01000201008A1AEC
:10039000000000000000000000000000000000005D
:1003A000000001CD0100000000AA1A033301000281
:1003B00001009A1A00000000000000000001CD01B9
:1003C00000000001FF1A03E301000000000000002C
:1003D000000000000000000001CD01000000001836
:1003E0001B03390100010100081B00000000000090
:1003F000000000033D0100020100061A03CD0100C8
:10040000000000000001DE0100780F00291A01DB66
:1004100001F40E0100D91902DE01D32D0F00A0193D
:1004200000000000000000000001D10100170100E1
:10043000742002D101003B01003A2002CE01003BB2
:100440000100002002CF0100630100FA2002CF0169
:10045000010C0100D32002CE01011F0100AB2003DB
:100460004301000301002B1B0000000000000000FE
:100470000000000000000000000001CD01000000AD
:10048000003B1B0379010000000000000000000099
:10049000000000000001CD0100000001441B03E743
:1004A000010000000000000000000000000000004B
:1004B00001CD01000000004D1B03E501000000001C
:1004C000000000000000000000000003CD0100005B
:1004D0000000000001CE0100000000CA1C03DB0187
:1004E00000000000000001CD0100000000E31C033B
:1004F000C301000101003D1A0000000000000000DF
:100500000003C701000201005C1B000000000000A6
:1005100000000000000000000000000001CD01000C
:100520000000027C1B034119000201006C1B00004B
:100530000000000000000001CD01000000029C1B33
:10054000034119000201006C1B00000000000000C4
:10055000000001CD0100000002BC1B034119000294
:1005600001006C1B000000000000000000F1E5E944
:10057000F7E0F100EFEEEAE0E7FBE2E0F2FC00EF8B
:10058000EE20EEF9F3F9E5EDE8FE00F2EEF7EAE031
:1005900020F0EEF1FB00E2FBF1EEF2E000F0E0E72C
:1005A000EDEEF1F2FC00EEF2EDEEF1E8F2E5EBFC3F
:1005B000EDE0FF00E0E1F1EEEBFEF2EDE0FF00F236
:1005C000EEF7EAE020F0EEF1FB00E4E0E2EB2E20B3
:1005D00048323020EFE0F0E000EEF1EBE0E1EBE557
:1005E000EDE8E500E4E0F2E000E2F0E5ECFF00F722
:1005F000E0F1EEE2EEE920EFEEFFF100EBE5F2EDE7
:10060000E5E520E2F0E5ECFF00E7E0F0FFE400E2E2
:10061000F0E5ECFF20F0E0E1EEF2FB00006D050AF2
:1006200002D905EF011803FD022003E2022903C7E6
:10063000023803AC02460391025503760262035B63
:1006400002700340027B0325026D05D8039605BDA9
:10065000039D05A20374058703E4054404E9052905
:1006600004EF050E04FC05F303A605B004B40595DC
:1006700004BF051C05CA057A0474055F040906E673
:10068000040F06CB04D2C5CCCFC5D0C0D2D3D0C0C6
:1006900000C1C0D2C0D0C5DF00C2CBC0C6CDCED154
:1006A000D2DC00C4C0D2C020C820C2D0C5CCDF007C
:1006B000C4C0C2CBC5CDC8C500CDC0D1D2D0CEC973
:1006C000CAC800CED1C2C5D9C5CDCDCED1D2DC00ED
:1006D000006D0552057F0537058B051C0574050166
:1006E00005060000000000000000000000000000FF
:1006F000000000000000017E030000000000000078
:100700000000000000000000000000030F000000D7
:100710000F000000000000000000000000000000CA
:10072000084000C80178004E00C80178004E00085B
:10073000000000000007180124022402FF0F4402F9
:1007400044028801000000000000090C001202129F
:1007500001CC002000980144024202800100000800
:10076000DC012202220222025C01800140022002FE
:1007700000000000010F0000000000000000000069
:1007800000000000000000000004F0000C03020460
:10079000010800000000000000000000000004014B
:1007A0000802040C03F0000000000000000000003C
:1007B0000000000550002000F8002000500000005C
:1007C000000000000000000006000020002000F8EB
:1007D00000200020000000000000000000020008CF
:1007E0000007000000000000000000000000000002
:1007F0000000042000200020002000000000000075
:1008000000000000000000010003000000000000E4
:1008100000000000000000000000000006000C00C6
:1008200003C00030000C00030000000000000000C6
:100830000006FC014202220212020A02FC01000030
:100840000000000000000504020402FE0300020094
:100850000200000000000000000000060403820205
:100860004202220212020C020000000000000000FE
:100870000604010202220222022202DC0100000020
:100880000000000000066000500048004400FE0325
:1008900040000000000000000000061E01120212CD
:1008A0000212021202E20100000000000000000635
:1008B000F8011402120212021202E001000000000C
:1008C000000000000602000200820362001A000617
:1008D00000000000000000000006DC0122022202ED
:1008E00022022202DC010000000000000000063CA1
:1008F000004202420242024201FC000000000000ED
:1009000000000001180300000000000000000000CB
:1009100000000000000000000200081807000000AE
:100920000000000000000000000000000006400081
:100930004000A000A0001001100100000000000015
:1009400000000590009000900090009000000000D2
:10095000000000000000000610011001A000A0002F
:1009600040004000000000000000000005040002FC
:1009700000620312000C00000000000000000000F4
:100980000009F8030404F2090A0A0A0A0A0AF20929
:100990000402F8010000070003E0009800860098B8
:1009A00000E000000300000000000006FE03220239
:1009B000220222022202DC010000000000000000EE
:1009C00007F800040102020202020202020401000E
:1009D000000000000007FE030202020202020202FF
:1009E0000401F80000000000000006FE03220222BD
:1009F00002220222020202000000000000000006A3
:100A0000FE0322002200220022000200000000005B
:100A10000000000007F80004010202020242024244
:100A200002C40300000000000007FE0320002000B5
:100A3000200020002000FE03000000000000030250
:100A400002FE03020200000000000000000000009F
:100A500000000004000102020202FE01000000008A
:100A6000000000000000000006FE03200050008887
:100A70000004010202000000000000000006FE0366
:100A8000000200020002000200020000000000005C
:100A9000000009FE030C003000C0000003C000305D
:100AA000000C00FE03000007FE03080010002000F9
:100AB00040008000FE0300000000000007F8000472
:100AC000010202020202020401F80000000000001C
:100AD0000006FE0342004200420042003C000000CB
:100AE00000000000000007F8000401020202028278
:100AF000020401F80200000000000006FE034200AC
:100B00004200C20042013C02000000000000000060
:100B1000061C012202220222022202C4010000005D
:100B2000000000000007020002000200FE030200B5
:100B30000200020000000000000007FE00000100AB
:100B400002000200020001FE000000000000000799
:100B50000E003000C0000003C00030000E00000096
:100B600000000000090E007000800370000C00708F
:100B700000800370000E000000070603880050008C
:100B8000200050008800060300000000000007025B
:100B9000000C003000C00330000C00020000000018
:100BA00000000007020382024202220212020A022D
:100BB000060200000000000003FF0F01080108000A
:100BC000000000000000000000000000000603001C
:100BD0000C003000C0000003000C0000000000000A
:100BE00000000301080108FF0F00000000000000E2
:100BF00000000000000000071000080004000200D0
:100C000004000800100000000000000007000800B9
:100C100008000800080008000800080000000000A4
:100C200000030100020004000000000000000000BA
:100C30000000000000000680014802480248024807
:100C400002F003000000000000000006FF03100295
:100C5000080208020802F001000000000000000085
:100C600006F0010802080208020802100100000054
:100C7000000000000006F001080208020802080156
:100C8000FF03000000000000000006F001480248D9
:100C90000248024802700200000000000000000547
:100CA0000800FE0309000900010000000000000028
:100CB0000000000006F001080A080A080A0809F8FE
:100CC00007000000000000000006FF0310000800FD
:100CD00008000800F003000000000000000001F917
:100CE0000300000000000000000000000000000001
:100CF0000000000300080808F907000000000000D9
:100D0000000000000000000005FF034000A00010EC
:100D10000108020000000000000000000002FF01C6
:100D200000020000000000000000000000000000C1
:100D3000000009F803100008000800F00310000884
:100D4000000800F003000006F80310000800080087
:100D50000800F003000000000000000006F0010899
:100D600002080208020802F0010000000000000072
:100D70000006F80F1002080208020802F001000045
:100D800000000000000006F0010802080208020846
:100D900001F80F000000000000000005F80310003B
:100DA0000800080010000000000000000000000023
:100DB0000530024802480248028801000000000095
:100DC0000000000000040800FF0108020802000003
:100DD0000000000000000000000006F80100020012
:100DE0000200020001F803000000000000000005FE
:100DF0003800C0000003C000380000000000000000
:100E000000000000093800C0000003C0003000C02E
:100E1000000003C00038000000051803A0004000D7
:100E2000A0001803000000000000000000000618E9
:100E300000E000000D0003E00018000000000000CA
:100E4000000000050803880248022802180200007A
:100E500000000000000000000520002000DE070167
:100E60000801080000000000000000000001FF0F62
:100E70000000000000000000000000000000000072
:100E800000000501080108DE072000200000000026
:100E900000000000000000086000100010002000AA
:100EA00020004000400030000000000003FF03016C
:100EB00002FF03000000000000000000000000002E
:100EC0000009F8000401020202023E02220222028C
:100ED0000401F800000009FE030202AA02AA02AA05
:100EE00002AA02AA020202FE030000080000C001DA
:100EF00030020C041E067C07F003C0010000000055
:100F000009200024018800200076032000880024A6
:100F1000012000000008FE008201FE038003800320
:100F2000FE03E201FE0000000000070002000000D6
:100F300000000200000000000200000000000009A4
:100F4000FE030202FA02120262021202FA02020214
:100F5000FE03000009F800FC01FE03FE03FE03028D
:100F60000202020401F80000000AFC011000FC016A
:100F70000000A003E0020000FC010401FC010904E0
:100F800002FE07440220022002200210020807008D
:100F9000020000096000D0070804E4052205E4050A
:100FA0000804D007600000000520007000D8008C05
:100FB0000104010000000000000000000009FE0321
:100FC00022022202DC010000E001100210022001D6
:100FD000000009FE0302000200FE030000F00340CF
:100FE000004000F00300000AFE0322022202DC019E
:100FF000000010001000F003100010000AFC0102B5
:10100000020202020204010000F00F10021002E0CE
:10101000010A3E0040004000FE03000010001000E6
:10102000F003100010000AFE0302000200FE03009D
:101030000010001000F003100010000AFC01020272
:101040000202020204010000F80114021402E2018B
:1010500009F80004010202A202EA0282020202046A
:1010600001F800000009F800040112020A024A0314
:101070002A0212020401F8000000057000F800F8CE
:1010800000F80070000000000000000000000009EF
:1010900030006000C0008001C00060003000180017
:1010A0000C0000000804018C01D80070007000D80A
:1010B000008C0104010000000009FE030202AA02E4
:1010C000AA02AA028A0282020202FE0300000902A8
:1010D000001E00020000001E000400080004001EA4
:1010E0000000000422004A004A0036000000000010
:1010F00000000000000000000504018C01D8007011
:10110000002000000000000000000000000AFC01B8
:1011100004010401040104010401040104010401A7
:10112000F8000AFC01FC01040104010401040104AB
:101130000104010401F8000AFC01FC01FC010401A6
:1011400004010401040104010401F8000AFC01FC8B
:1011500001FC01FC0104010401040104010401F883
:10116000000AFC01FC01FC01FC01FC01040104017A
:1011700004010401F8000AFC01FC01FC01FC01FC73
:1011800001FC01040104010401F8000AFC01FC0156
:10119000FC01FC01FC01FC01FC0104010401F8005C
:1011A0000AFC01FC01FC01FC01FC01FC01FC01FC4E
:1011B000010401F8000AFC01FC01FC01FC01FC0136
:1011C000FC01FC01FC01FC01F8000AFC0104010423
:1011D0000030022801A400620000010401F80009A7
:1011E0000003C00230020C0202020C023002C002F4
:1011F00000030000066C049208120912092209C4B7
:1012000006000000000000000006FC032502240286
:10121000240225022402000000000000000009F85A
:10122000030404F2090A0A0A0A0A0A12090404F861
:1012300003000007F80024012202220222022202F7
:10124000040100000000000006600090000801603A
:1012500000900008010000000000000000050401EB
:101260000603FF0706030401000000000000000061
:1012700000000780044E065101F10051014E068026
:101280000400000000000009F8030404FA0B4A08F7
:10129000CA084A09320A0404F8030000030502FCE4
:1012A0000305020000000000000000000000000034
:1012B00000051C002200220022001C00000000008B
:1012C00000000000000007100110011001FE0110D5
:1012D0000110011001000000000000030202FE03E3
:1012E00002020000000000000000000000000000FA
:1012F00001F90300000000000000000000000000F1
:10130000000000000005F8030800080008000E00B7
:101310000000000000000000000007F80F000100BE
:101320000200020002F801000200000000000006B6
:101330001C0022002200FE0F0200FE0F0000000031
:1013400000000000026000600000000000000000DB
:1013500000000000000000000006F0014A02480200
:1013600048024A02700200000000000000000AFE6D
:10137000030C003000C000FE0300001C00A200A20D
:10138000001C0006F0014802480248020802100151
:101390000000000000000000060801900060000846
:1013A000019000600000000000000000000A08003A
:1013B000FF01080208020000C0012002F00F200215
:1013C000C001090800FF01080208020000E00F2028
:1013D000022002C0010000090800FF010802080203
:1013E0000000C00120022002C0010000030200F83A
:1013F00003020000000000000000000000000000E8
:1014000000070003E000980086009800E000000359
:1014100000000000000006FE032202220222022237
:1014200002C001000000000000000006FE032202CE
:10143000220222022202DC01000000000000000063
:1014400006FE03020002000200020002000000008B
:1014500000000000000800060003E0021E02020275
:101460000202FE0300060000000006FE0322022224
:101470000222022202020200000000000000000915
:101480000603880050002000FE0320005000880062
:10149000060300000604010202220222022202DCEC
:1014A00001000000000000000007FE038000400073
:1014B000200010000800FE0300000000000007FEEE
:1014C0000380004100210011000800FE030000001D
:1014D00000000006FE032000500088000401020204
:1014E0000000000000000000060003E0001C0002F5
:1014F000000200FE03000000000000000009FE03DF
:101500000C003000C0000003C00030000C00FE03DF
:10151000000007FE0320002000200020002000FE25
:101520000300000000000007F800040102020202AC
:1015300002020401F80000000000000007FE0302A0
:10154000000200020002000200FE03000000000092
:101550000006FE0342004200420042003C00000040
:1015600000000000000007F800040102020202026D
:101570000202020401000000000000070200020055
:101580000200FE0302000200020000000000000052
:1015900007060018026002800160001800060000C3
:1015A0000000000000097000880004010401FE032F
:1015B0000401040188007000000007060388005041
:1015C0000020005000880006030000000000000713
:1015D000FE030002000200020002FE0300060000FB
:1015E00000000000073E0040004000400040004076
:1015F00000FE0300000000000009FE0300020002DC
:101600000002FE03000200020002FE0300000AFEC8
:1016100003000200020002FE03000200020002FEBC
:10162000030006070200FE0320022002200220021F
:10163000C00100000000000008FE0320022002207C
:10164000022002C0010000FE030000000006FE03AD
:101650002002200220022002C00100000000000041
:10166000000007040122022202220222022401F8C1
:10167000000000000000000AFE0320002000F80027
:1016800004010202020202020401F800063C0242C6
:1016900001C20042004200FE030000000000000002
:1016A000000680014802480248024802F003000098
:1016B00000000000000006FC010A020902090209FC
:1016C00002F101000000000000000006F8034802DB
:1016D000480248024802B00100000000000000007B
:1016E00005F80308000800080008000000000000DA
:1016F00000000000000700068003780208020802CC
:10170000F803000600000000000006F0014802484F
:1017100002480248027002000000000000000009B8
:1017200008021001A0004000F8034000A0001001D2
:1017300008020000050802480248024802B0010001
:1017400000000000000000000006F8030001800017
:1017500040002000F803000000000000000006F830
:10176000030101820042002100F803000000000094
:1017700000000006F80340004000A000100108022D
:101780000000000000000000060003C00030000858
:10179000000800F803000000000000000007F80344
:1017A00010002000C00020001000F803000000001E
:1017B000000006F8034000400040004000F803002D
:1017C0000000000000000006F00108020802080204
:1017D0000802F001000000000000000006F8030805
:1017E00000080008000800F80300000000000000E6
:1017F0000006F80F1002080208020802F0010000BB
:1018000000000000000006F00108020802080208BB
:1018100002100100000000000000000508000800A0
:10182000F8030800080000000000000000000000AD
:10183000061800E000000D0003E0001800000000A2
:10184000000000000007F00108020802FE0F080275
:101850000802F001000000000000051803A000408D
:1018600000A00018030000000000000000000006B7
:10187000F803000200020002F80300060000000066
:10188000000000000678008000800080008000F8E2
:1018900003000000000000000007F803000200023F
:1018A000F80300020002F80300000000000008F83E
:1018B0000300020002F80300020002F80300060021
:1018C000000000060800F803200220022002C001E8
:1018D000000000000000000007F8032002200220A2
:1018E00002C0010000F80300000000000005F8033A
:1018F000200220022002C0010000000000000000C1
:1019000000000610010802480248024802F00100E7
:101910000000000000000008F80340004000F00153
:10192000080208020802F001000000000630024828
:1019300001C80048004800F8030000000000000053
:1019400000710174017701EA00ED00F000F300F688
:1019500000F900FC000000350C35004A0C4B007FFC
:101960000C14246A300033353F35334A3F4B337F04
:101970003F323032312E30362E3236004657207606
:10198000312E322D525500286329205249564100EC
:101990004D6574656F73746174696F6E0000CFEE8E
:1019A000E4EAEBFEF7E5ED20EA20F5EEF1F2F300D4
:1019B00004D1068506027D0691060569069906048E
:1019C0005906A306044906B006092506B906021DF4
:1019D00006C306CFEEE4EEE6E4E8F2E5207E33301F
:1019E00020F100EA20F5EEF1F2F3202F20CFCA20FB
:1019F0002100CDE520EFEEE4EAEBFEF7E0E9F2E5C9
:101A0000F1FC00AEA6AED580A83FD300408D14A156
:101A1000C8DA1281CFD9F1DB30A4A6AF2E200200A4
:101A200010B000000000240027002A000102040872
:101A30001020408001020408102001020408102038
:101A40000404040404040404020202020202030364
:101A500003030303463311241FBECFEFD8E0DEBFDC
:101A6000CDBF11E0A0E0B1E0E0EEF6E702C00590E6
:101A70000D92A434B107D9F727E0A4E4B1E001C086
:101A80001D92A33FB207E1F71DE0CBE2DDE004C009
:101A90002197FE010E946A37CA32D107C9F70E9416
:101AA00047340C946E3B0C9400006091870330E047
:101AB00020E045E02617B0F4C9012F5F3F4F489F53
:101AC000F001499FF00D1124E457FC4F508155FF60
:101AD000F1CF429FF001439FF00D1124EC57FC4FD2
:101AE0008081089580E00895382F20914C0381E093
:101AF000213208F045C0809128038111FCCF9091DC
:101B00004B0342E040932803309327033FEF309389
:101B1000260310922503209324034BE253E0A4E014
:101B2000B3E0FA013E2F341B321788F11092030301
:101B300020910303990F922B90930303909102033A
:101B4000913041F510920203909103039093BB00F2
:101B50009091BC0093FDF8CF95EC9093BC009091D0
:101B600028039230E1F3909126039F3F49F0809142
:101B70002603803289F080912603803379F084E057
:101B800010922A0310924C03109229030895319168
:101B90003D93C8CF95EEE1CF82E0F2CF83E0F0CF66
:101BA00091E09093290380934B0310922A031092A3
:101BB0004C030895089508951092010310920003B4
:101BC00010922A0310924C031092280381E0809314
:101BD000270310920203449A459AE9EBF0E08081D2
:101BE0008E7F808380818D7F808388E48093B8009E
:101BF00085E48093BC008AED9DE09093FF02809382
:101C0000FE028BED9DE09093FD028093FC0208950F
:101C100090910103809100032FEF3FEF981748F454
:101C2000E92FF0E0E452FD4F208130E09F5F909378
:101C30000103C901089590910103809100032FEFE2
:101C40003FEF981748F4E92FF0E0E452FD4F208170
:101C500030E09F5F90930103C9010895909128039C
:101C60009111FCCF91E090932803909327032FEFDD
:101C70002093260310922503260F2093240390938C
:101C8000030390910303880F892B809303038091B2
:101C90000203813011F510920203809103038093B7
:101CA000BB008091BC0083FDF8CF85EC8093BC0025
:101CB000809128038130E1F380912503861710F489
:101CC0006091250324E033E0ACEDB2E0F9018E2F02
:101CD000821B861720F0862F089585EEE7CF81912D
:101CE0008D93F5CF8091000390910103891B990B8F
:101CF00008958F929F92AF92BF92CF92DF92EF9210
:101D0000FF920F931F93F0916803F150FC3008F09D
:101D100095C000916903015010E081E090E0F1303E
:101D200011F490E080E0800F911FAF2FB0E0A35E30
:101D3000BE4F2C91281719060CF480C0E091660361
:101D4000E05D0E5F1F4F012E000C220B330B8E2F18
:101D50008695869568017901C80ED11CE11CF11C9D
:101D60004E2F50E02DE631E0429FC001439F900D81
:101D7000529F900D1124092E000CAA0BBB0B8C0155
:101D80009D010C0D1D1D2E1D3F1D8E2F64E60E9412
:101D90007936081B110921093109EE2349F0CA01DE
:101DA00064E670E00E948536892B41F0E37031F4DF
:101DB000F23020F40150110921093109FF2361F0AB
:101DC0004DE151E0DA018D91080F111D211D311DEA
:101DD0008A2F841B8F17B8F3A901980160E871E579
:101DE00081E090E00E9469366B017C0120916B03D9
:101DF00030E0ACE3B0E00E94103920916C034B015D
:101E00005C01820E911CA11CB11CA50194010E94D1
:101E1000DB3820916D03620F711D811D911D6C0DCA
:101E20007D1D8E1D9F1D1F910F91FF90EF90DF90E4
:101E3000CF90BF90AF909F908F90089500E010E0FA
:101E40009801CACF1F93CF93DF932EE533E0D901DA
:101E50001A964C918EE090E0841B9109ECE0F0E042
:101E6000BF010E949936162FD9011896CD91DC91A9
:101E70001997C61BD1091B962C912C0F3D2F311D94
:101E8000BE017695679576956795260F371FCE012B
:101E900060E971E00E948536260F371FCE0164E6A7
:101EA00070E00E948536261B370B4250BCE01B9F1A
:101EB000400D11245FE1459FC0011124BF010E9424
:101EC0009936C901860F971F67E070E00E9485363A
:101ED000DF91CF911F910895CF92DF92EF92FF9201
:101EE000CF93DF9310927503D1E0D0936B031092E0
:101EF0006C0310926D0383E080936803CFE1C0937D
:101F000069030E94220F67E00E947936C91BC093C3
:101F100069030E94790EC0906E03D0906F03E09029
:101F20007003F09071036C157D058E059F0510F40C
:101F3000D09375038AE080936803CFE1C09369036F
:101F40000E94220F67E00E947936C91BC093690383
:101F50000E94790E6C157D058E059F0510F4109278
:101F60007503DF91CF91FF90EF90DF90CF900895B0
:101F70002091F1072170219582ED93E0FC012193DE
:101F8000CF01F7E0823D9F07C9F708958091C00017
:101F900085FFFCCF9091A2028091A102981789F051
:101FA000E091A102F0E0EF57FD4F90818091A102F6
:101FB0008F5F8093A102803210F01092A102909363
:101FC000C60008959091A2029F31C8F49091A20298
:101FD0009F5F292F30E02F5F3F4F4091A1024217B2
:101FE0001306D9F32091A102921741F0E091A202C9
:101FF000F0E0EF57FD4F80839093A202089590E0A8
:10200000E8CF0E94E20F0C94C60F0F931F93CF935B
:102010008C01C0E0F801EC0FF11D8081882331F0C4
:102020000E94E20F0E94C60FCF5FF4CFCF911F91A5
:102030000F9108959091800280917F02981781F00E
:10204000E0917F02F0E0E15CFD4F808190917F02A2
:102050009F5F90937F02903420F010927F0208954A
:102060008FEF08958093D2076093D3076134A0F077
:102070009091EE078091D507989F800D1124982F9D
:1020800080E4891B6F3F49F08093D3078091D30789
:10209000813410F01092D30708958695F5CF2F92D2
:1020A0003F924F925F926F927F928F929F92AF92E8
:1020B000BF92CF92DF92EF92FF920F931F93CF9335
:1020C000DF93CDB7DEB72B970FB6F894DEBF0FBE08
:1020D000CDBF8A3029F58091EE076091D507869FA4
:1020E000600D11248091D307680F80E02B960FB606
:1020F000F894DEBF0FBECDBFDF91CF911F910F913E
:10210000FF90EF90DF90CF90BF90AF909F908F9017
:102110007F906F905F904F903F902F900C94321073
:102120008A3008F4805D9091F007891708F496C012
:102130003091D307303408F091C0891B4091EC07EF
:102140006091EA077091EB07798768872091EF0724
:10215000289F60011124413031F4FB01EC0DFD1D7D
:10216000E491E093D607F090D607C40ED11CE0901E
:10217000EE072091F107722F78707B838090D7074C
:102180009090D807C4010196DC01B695A795B69545
:10219000A795BD83AC83B22FB170BE83832F8770A8
:1021A00091E0792E01C0770C8A95EAF7AA24A394CE
:1021B000AE0C2090D407932F969596959695322F36
:1021C00034703F838091D2072270B090D50760E8C9
:1021D000969FA00111245A83498360E070E050E08B
:1021E00040E07F15D0F431E0360FF601E60FF11D27
:1021F000A885B985EA0FFB1FE4914E2F50E0B8E0A7
:10220000BE1508F044C06E5FF601E30FF11DA8850E
:10221000B985EA0FFB1FE4915E2BBB81BB2321F044
:10222000AC81BD814A2B5B2BBE81BB2311F0409555
:102230005095F401E423F5231092E1071092D90799
:102240001A2D672C30E0111124C0122D180F8117A0
:1022500009F483C087FF5AC08093D2072B960FB62C
:10226000F894DEBF0FBECDBFDF91CF911F910F91CC
:10227000FF90EF90DF90CF90BF90AF909F908F90A6
:102280007F906F905F904F903F902F900895632FB5
:10229000C4CF00E02F0141E044225524B01669F17B
:1022A000A32FB0E0AD0143535C4F5B874A874C5E80
:1022B0005B4FDA013C9036283C924114510439F0CE
:1022C000AA85BB85A45FBB4F4C9146294C93462DF4
:1022D000440F81F43F5F3830B0F4432F50E0435354
:1022E0005C4FDA01AC5EBB4F1C92445F5B4FDA017E
:1022F0001C9241E00F5F642ED1CF4FEF410FF69556
:10230000E795142FA0CF66246394F9CFE981FA8171
:10231000E80FF11DE353FC4FA9EDB7E040E0592F62
:10232000540F583010F08F5F92CF5F81552339F0F2
:1023300018960C9118970095558150235583058167
:102340005D91222341F0502755834F5FE058FF4FA6
:10235000341728F7E8CF502BF7CF7F5FF71608F038
:102360003ECF7ACFEF92FF921F93CF93DF9300D0AF
:1023700000D00F92CDB7DEB72091E90710E03AE028
:10238000E32EF12C009779F421110EC01123D1F026
:102390001150E1E0F0E0EC0FFD1FE10FF11D808135
:1023A0000E944F10F3CF21112150E1E0F0E0EC0F3B
:1023B000FD1FE10FF11DB7010E9485368083CB011F
:1023C0001F5FE0CF0F900F900F900F900F90DF9155
:1023D000CF911F91FF90EF9008954F925F926F926F
:1023E0007F928F929F92BF92CF92DF92EF92FF9255
:1023F0000F931F93CF93DF93CDB7DEB72A970FB616
:10240000F894DEBF0FBECDBF6B017C01042F20E02E
:1024100030E0A9010E94823787FF07C08DE20E9449
:102420004F10F7FAF094F7F8F09410E060E070E0E5
:1024300080E09FE3101741F020E030E040E251E4FB
:102440000E948C391F5FF6CFA70196010E942039A8
:102450002B013C010E943F3A6B017C010E948737AF
:102460009B01AC01C301B2010E941F392B013C0149
:10247000B090E90710E0C114D104E104F10479F44B
:10248000B1100EC0112311F11150E1E0F0E0EC0F9A
:10249000FD1FE10FF11D80810E944F10F3CFB1109D
:1024A000BA9488248394912C8C0E9D1E810E911CCD
:1024B000C701B6012AE030E040E050E00E94EE386B
:1024C000F401608369017A011F5FD5CF002319F001
:1024D0008CE20E944F10015000F120E030E040E219
:1024E00051E4C301B2010E94E8372B013C010E9474
:1024F0003F3AE62EF12CC7010E94B211B701FF0C42
:10250000880B990B0E9489379B01AC01C301B20172
:102510000E941F392B013C01DECF2A960FB6F8949A
:10252000DEBF0FBECDBFDF91CF911F910F91FF9006
:10253000EF90DF90CF90BF909F908F907F906F90A3
:102540005F904F9008959091D4072091EC0721302F
:1025500091F42091F007821B2091EF07E091EA07A8
:10256000F091EB07829FE00DF11D11248491989F5B
:10257000802D112408958091ED07F9CF6F927F92FD
:102580008F929F92AF92BF92CF92DF92EF92FF9283
:102590000F931F93CF93DF936B017C01D091E907D9
:1025A000C0E08AE0882E912CA12CB12CC701B60185
:1025B000A50194010E94EE38122F032F742E652E70
:1025C00080E3860F0E94A3129091D407890FC80F51
:1025D000DD23D1F0D1508AE0C816D104E104F10422
:1025E000C8F4D11117C08C2F891BDF91CF911F9197
:1025F0000F91FF90EF90DF90CF90BF90AF909F90A2
:102600008F907F906F9008958AE0C816D104E104FE
:10261000F10448F3C12ED02EE72CF62CC7CF8F92B1
:102620009F92AF92BF92CF92DF92EF92FF921F9351
:10263000CF93DF936B017C01D42F20E030E0A90120
:102640000E948237C0E087FF0AC08DE20E94A31279
:10265000C091D407C80FF7FAF094F7F8F09410E09F
:1026600060E070E080E09FE31D1741F020E030E083
:1026700040E251E40E948C391F5FF6CFA70196011A
:102680000E9420396B017C010E943F3A4B015C01A2
:102690000E9487379B01AC01C701B6010E941F3918
:1026A0006B017C01C501B4010E94BE12C80FDD237D
:1026B00039F08CE20E94A3129091D407C90FC80F81
:1026C000D15020F120E030E040E251E4C701B601F2
:1026D0000E94E8376B017C010E943F3A162F80E38D
:1026E000810F0E94A3129091D407890FC80F612F08
:1026F00070E090E080E00E9489379B01AC01C70147
:10270000B6010E941F396B017C01DACF8C2FDF915B
:10271000CF911F91FF90EF90DF90CF90BF90AF903F
:102720009F908F9008950F931F93CF938C01C0E0DB
:10273000F801EC0FF11D8081882321F0CF5F0E940A
:102740004F10F6CFCF911F910F9108950F931F93C4
:10275000CF93DF938C01D0E0C0E0F801ED0FF11DC5
:102760008081882341F0DF5F0E94A3129091D407FB
:10277000890FC80FF2CF8091D407C81B8C2FDF912F
:10278000CF911F910F9108951F93CF93DF93EC0189
:10279000162F0E94A61390E8981B892F8695809388
:1027A000D207612F0E943210CE01DF91CF911F918D
:1027B0000C9493131F93CF93DF93D82FC62F142F0E
:1027C0000E94A312C138D0F090E8981B892FCF3F08
:1027D00071F486958093D207612F8091D2070E9471
:1027E00032108D2FDF91CF911F910C944F108C1BC5
:1027F0008F57813878F31092D207EECFC093D2076B
:10280000EBCF1F93CF93DF932091D307922F969511
:1028100096959695122F1770813099F5A091D20751
:10282000A7FD5BC04091F207542F52704170B0E099
:10283000C1E0D0E0662309F450C0983008F04DC0E4
:102840009E01012E01C0220F0A94EAF780E8989FAA
:10285000F0011124E353FC4FEA0FFB1F8581552340
:1028600049F0822785831F5F183011F49F5F10E0C5
:102870006150E0CF442319F020958223F3CF822BBF
:10288000F1CF203450F53091D2077091F207A72F85
:10289000A270717041E050E001C0440F1A95EAF750
:1028A000542F4095630F20E8929FC0011124835359
:1028B0009C4F361791F037FD10C0FC01E30FF11D5E
:1028C0002581AA2321F0252725833F5FF2CF772397
:1028D00011F02423F9CF252BF7CFDF91CF911F9152
:1028E00008959C01205D374028383105B8F42FEF5A
:1028F000260F2C3098F42FEF240F2F3178F44093CB
:1029000069036093680390936703809366030E9452
:10291000220F80936A0381E08093720308958830C8
:1029200070F4E82FF0E0E55CFE4F80819BB16623F8
:1029300019F0892B8BB9089580958923FBCF8E30B0
:1029400078F48850E82FF0E0E55CFE4F808195B187
:10295000662319F0892B85B9089580958923FBCFCB
:10296000863158F48E50E82FF0E0E55CFE4F808110
:1029700098B1662319F0892B88B908958095892329
:10298000FBCF61E08091A1030C948F1460E08091F3
:10299000A1030C948F143FB7F89480912202909178
:1029A0002302A0912402B091250226B5A89B05C060
:1029B0002F3F19F00196A11DB11D3FBFBA2FA92FBE
:1029C000982F8827BC01CD01620F711D811D911DBB
:1029D00042E0660F771F881F991F4A95D1F7089527
:1029E0008F929F92AF92BF92CF92DF92EF92FF921F
:1029F0006B017C010E94CB144B015C010E94CB1443
:102A0000681979098A099B09683E73408105910517
:102A1000A8F381E0C81AD108E108F10828EE820E77
:102A200023E0921EA11CB11CC114D104E104F104E5
:102A300029F7FF90EF90DF90CF90BF90AF909F90DD
:102A40008F9008952FB7F89460911E0270911F0225
:102A500080912002909121022FBF08958EBD000029
:102A60000DB407FEFDCF8EB508950E94C61489EB04
:102A70000E942E150C94C114CF930E94C61485E0B9
:102A80000E942E158FEF0E942E15C82F0E94C11490
:102A90008C2FCF910895CF93DF93C1EAD3E08B8140
:102AA0000E942E158A810E942E158981DF91CF9177
:102AB0000C942E150E94C61486E00E942E150E94CA
:102AC000C1140E943C1580FDFCCF0C94C614CF931A
:102AD0000E94C61483E00E942E150E944B158FEFB2
:102AE0000E942E15C82F0E94C114E1EAF3E08181F3
:102AF0009281A381B4810196A11DB11D818392832E
:102B0000A383B4838C2FCF9108950E94C6148BEABF
:102B10000E942E150C94C114CF93DF93EC010E94F8
:102B2000221579836883DF91CF910895CF93DF9346
:102B3000EC018A819B81892B61F00E9422152881FA
:102B40003981621B730B81E02A813B81261737078D
:102B500008F080E0DF91CF9108950F931F93CF93FA
:102B6000DF93EC018B010E942215798368831B831C
:102B70000A83DF91CF911F910F9108950F931F93B7
:102B8000CF93DF93CDB7DEB728970FB6F894DEBFAB
:102B90000FBECDBF8C01DC0117966D917C91CE01EB
:102BA00001960E94AD15F80165817681CE010596EA
:102BB0000E94AD15D80119968D919C91892BB9F081
:102BC000F80167817085CE0101960E94AD15CE0196
:102BD00001960E949615D8018823A1F01D96ED91CB
:102BE000FC911E97309719F012968C9109952896B2
:102BF0000FB6F894DEBF0FBECDBFDF91CF911F910E
:102C00000F9108951996ED91FC911A9713966C9176
:102C1000139712968C910995833009F440C080F483
:102C2000813009F464C0823059F6D8011B96ED91C9
:102C3000FC911C97309721F212968C910995C0CF88
:102C40008530F9F090F0863009F0BACFCE010596C4
:102C50000E949615882309F4B3CFD80115966D917B
:102C60007C91CE0105960E94AD15F801828190817C
:102C7000891334C0818182838F5F9481891B838310
:102C80009FCFCE0105960E949615882309F498CF10
:102C9000F80165817681CE0105960E94AD15D801B7
:102CA00012968C91129711969C911197891307C0D7
:102CB0008C9112968C93129713968C9381CF8F5F81
:102CC000F80182832381821B990B348138171906FE
:102CD00011F00CF075CF2F5F238372CF8150828368
:102CE0009381891708F06CCF9150938369CFD801F5
:102CF00075CF85ED8093BC008091BC0084FDFCCF36
:102D00001092280308952091F901260F3327331FCD
:102D100021323105ECF420912803FC0190E080E0A1
:102D2000243069F082E00895A091F9012191AC016D
:102D300047525E4FA40FB52FB11D2C9301968617F5
:102D400098F38091F901680F6093F90180E008958C
:102D500081E008950895E091010380910003E81750
:102D600030F4F0E0E452FD4F808190E008958FEF61
:102D70009FEF0895CF92DF92EF92FF920F931F93F0
:102D8000CF93DF937C01CB018A0120912903222379
:102D900089F0EB016B01C40ED51ECC15DD0569F081
:102DA0006991D701ED91FC910190F081E02DC7016F
:102DB0000995F3CF642F0E948316C801DF91CF914C
:102DC0001F910F91FF90EF90DF90CF900895CF93D8
:102DD000DF930F92CDB7DEB76983209129032223B9
:102DE000F9F020914C03203258F021E030E0FC0152
:102DF0003383228390E080E00F90DF91CF9108959C
:102E000080912A03E82FF0E0E55DFC4F99819083E3
:102E10008F5F80932A0380934C0381E090E0ECCF96
:102E200061E0CE0101960E948316F7CF682F86EAF3
:102E300093E00C94E71681E00C94740D1F93CF93EC
:102E4000DF93182FC2EBD3E088810E94D00D898DCB
:102E50009A8DDC01ED91FC910190F081E02D612FC4
:102E60000995898D9A8D0E941B1790E09C838B8316
:102E7000DF91CF911F9108950F931F93CF9388E611
:102E80000E94D00D90E080E00E9416170EE513E03E
:102E9000F8018781CAE06C2F0E9479368295807F85
:102EA000682F690F86EA93E00E94E716F801868191
:102EB0006C2F0E9479368295807F682F690F86EA91
:102EC00093E00E94E716F80185816C2F0E94793605
:102ED0008295807F682F690F86EA93E00E94E7164B
:102EE000F80184816C2F0E9479368295807F682F4B
:102EF000690F86EA93E00E94E716F80183816C2F40
:102F00000E9479368295807F682F690F86EA93E068
:102F10000E94E716F80182816C2F0E947936829513
:102F2000807F682F690F86EA93E00E94E716F80118
:102F30008081805D6C2F0E9479368295807F682F1A
:102F4000690F86EA93E00E94E71686EA93E0CF9144
:102F50001F910F910C941B17CF93C82F8091CD0315
:102F60000E94D00D80E890E00E9416176C2F86EA30
:102F700093E00E94E71686EA93E0CF910C941B172A
:102F8000CF93DF93803108F08FE0C82FC295C07FC8
:102F900081E80E94AC178C2F0E94AC17D0E0C1389A
:102FA00040F0DC2FD295DF70D850C695C695C695F7
:102FB000C0518BED0E94AC178D2F8295807F0E94AF
:102FC000AC17C11101C0C1E089ED0E94AC1720E12E
:102FD000C29FC00111248160DF91CF910C94AC1786
:102FE000CF92DF92EF92FF920F931F93CF93DF93D5
:102FF0002091CE033091CF034091D0035091D10363
:1030000060E074E284EF90E00E94EE3820513109D4
:103010004109510956954795379527952093B80052
:1030200089E00E94AC1780E00E94AC1792E5E92E7F
:1030300094E0F92E10E0670180E8C81AD108812FCA
:10304000806B0E94AC178091CD030E94D00D80E46C
:1030500090E00E94161700E0E601699186EA93E08D
:103060000E94E7160F5F0F3169F486EA93E00E9431
:103070001B178091CD030E94D00D80E490E00E9448
:10308000161700E06E01CE15DF0531F786EA93E0F2
:103090000E941B171F5F7E0180E8E80EF11C1830AC
:1030A00051F6DF91CF911F910F91FF90EF90DF903C
:1030B000CF90089590E080E00895962F91708E3023
:1030C000C8F48850E82FF0E0E55CFE4F808199233A
:1030D00021F094B1892B84B9089595B161FF07C09F
:1030E000892B85B994B1808180958923F4CF80950F
:1030F0008923F7CF8E50E82FF0E0E55CFE4F80810A
:10310000992321F097B1892B87B9089598B161FF70
:1031100007C0892B88B997B1808180958923F4CF26
:1031200080958923F7CF8830C0F4E82FF0E0E55C84
:10313000FE4F808160FF04C09AB1892B8AB908953F
:103140009BB161FF07C0892B8BB99AB180818095B3
:103150008923F4CF80958923F7CF0C945D181092C2
:103160003702109238021092390210923A020E94ED
:1031700085150E945A1587EC0E942E150E94C114D5
:103180000E943C1580FDFCCF0C943515882331F04E
:10319000CB01BA010E943F3A60933E0260913E0229
:1031A00070E090E080E00E9487370895882331F036
:1031B000CB01BA010E943F3A60933C0280913B02EE
:1031C00090913C02892B19F485E080933C02609138
:1031D0003C0270E090E080E00E94873708958823E9
:1031E00031F0CB01BA010E943F3A60933B026091FB
:1031F0003B0280913C02862B19F485E080933C02CF
:1032000070E090E080E00E94873708950F931F934D
:10321000CF93DF938A019B018823C9F08091350207
:103220009091360264E670E00E94853684E6869FBF
:10323000E001879FD00D1124C901B8010E943F3AD7
:103240006C0F7D2F711D7093360260933502809153
:1032500035029091360264E670E00E948536BC012A
:1032600090E080E00E948737DF91CF911F910F910E
:1032700008950F931F93CF93DF938A019B018823B7
:10328000B1F0809135029091360264E670E00E94C0
:103290008536EC01C901B8010E943F3A84E6689F77
:1032A000C00DD11D1124D0933602C09335028091F8
:1032B00035029091360264E670E00E94853690E017
:1032C00080E00E948737DF91CF911F910F91089581
:1032D000882331F0CB01BA010E943F3A6093320259
:1032E00080913202811103C086EA0E94AC1780915E
:1032F0003202813019F487EA0E94AC1780913202C1
:10330000823089F46091C3017091C4018091C5013C
:103310009091C6010E943F3A693582E0780758F0E3
:1033200087EA0E94AC176091320270E090E080E082
:103330000E948737089560397140A8F786EAF1CF77
:103340000F931F93CF93DF938A019B018823F1F0A2
:1033500080917303909174036CE370E00E9499363E
:103360008CE3869FE001879FD00D1124C901B8012D
:103370000E94383AC60FD11D67FDDA95D0937403C9
:10338000C0937303D0933002C0932F0280912F0219
:10339000909130026CE370E00E949936BC01990F65
:1033A000880B990B0E948937DF91CF911F910F9164
:1033B00008958823E1F0CB01BA010E94383A4CE32A
:1033C000469F9001479F300D112480917303909187
:1033D00074036CE370E00E949936820F931F909300
:1033E0007403809373039093300280932F02809133
:1033F0002F02909130026CE370E00E949936072E04
:10340000000C880B990B0E9489370895CF9388236D
:10341000B9F0CB01BA010E943F3AC62F81E0C1301A
:1034200009F080E08093750381E0C23009F080E00C
:1034300080937603C23011F40E946C0FC0932E0269
:1034400060912E0270E090E080E00E948737CF917B
:103450000895882341F0CB01BA010E94383A609365
:103460002D026093770360912D02062E000C770BDE
:10347000880B990B0E9489370895882331F0CB017E
:10348000BA010E943F3A60932C0260912C0270E0D6
:1034900090E080E00E9487370895882341F0CB01B7
:1034A000BA010E943F3A84E6861B80933D028091D8
:1034B0003D0264E670E0681B7109072E000C880B62
:1034C000990B0E9489370895CF92DF92EF92FF9275
:1034D00020E030E048EC52E46091C3017091C401F7
:1034E0008091C5019091C6010E94E8376B017C0173
:1034F00060913D0270E090E080E00E9487379B0180
:10350000AC01C701B6010E948C39FF90EF90DF90AB
:10351000CF900895882331F0CB01BA010E943F3A41
:10352000609328026091280270E090E080E00E94A1
:1035300087370895882331F0CB01BA010E943F3AC2
:10354000609329026091290270E090E080E00E947F
:1035500087370895CF92DF92EF92FF9280912902F0
:10356000813049F52CEB37EC45EF5BE360919B0133
:1035700070919C0180919D0190919E010E94E8377D
:103580006B017C012CEB37EC45EF5BE36091B30101
:103590007091B4018091B5019091B6010E94E83715
:1035A0009B01AC01C701B6010E941F39FF90EF904B
:1035B000DF90CF900895823089F420919F0130915F
:1035C000A0014091A1015091A2016091BB017091B5
:1035D000BC018091BD019091BE01E6CF2091B30165
:1035E0003091B4014091B5015091B60160919B01B9
:1035F00070919C0180919D0190919E01D5CF609129
:10360000BB017091BC018091BD019091BE010895F4
:10361000882331F0CB01BA010E943F3A6093270220
:103620006091270270E090E080E00E948737089563
:1036300060919B0170919C0180919D0190919E01F0
:1036400020912702213031F42CEB37EC45EF5BE37E
:103650000E94E8370895882331F0CB01BA010E9417
:103660003F3A609326026091260270E090E080E08D
:103670000E94873708956091AF017091B0018091E9
:10368000B1019091B20108956091B7017091B801B4
:103690008091B9019091BA01089520E030E048ECA2
:1036A00052E46091970170919801809199019091F5
:1036B0009A010E94E8370895882331F0CB01BA01BE
:1036C0000E943F3A60932B0260912B0270E090E0E1
:1036D00080E00E9487370895882331F0CB01BA013A
:1036E0000E943F3A60932A0260912A0270E090E0C3
:1036F00080E00E948737089520912A026091A301FB
:103700007091A4018091A5019091A601213069F4E6
:1037100026E636E646EE5FE30E94E83720E030E03A
:1037200040E052E40E94203908952230E9F723E373
:1037300033E948E853E4F6CF20912A026091A701CB
:103740007091A8018091A9019091AA01213069F49A
:1037500026E636E646EE5FE30E94E83720E030E0FA
:1037600040E052E40E94203908952230E9F723E333
:1037700033E948E853E4F6CF20912A02609193019F
:10378000709194018091950190919601213069F496
:1037900026E636E646EE5FE30E94E83720E030E0BA
:1037A00040E052E40E94203908952230E9F723E3F3
:1037B00033E948E853E4F6CF81E08093D40780935F
:1037C000D5071092F2071092F1070C94B80F60E041
:1037D00081E10E945D1862E085E00E94931861E03B
:1037E00083E00E94931861E083E00C948F141F9390
:1037F000CF93DF93172FD82FC92F862F0E94011048
:10380000812F0E9401108D2F0E9401108C2FDF91BB
:10381000CF911F910C94011080E893E00E949615BF
:10382000882369F180E893E00E948C158EE48093F0
:103830007C0080E230E020E06BE173E0FB01319737
:10384000F1F790917A00906490937A0090917A00C9
:1038500096FDFCCF4091780090917900592F240F6C
:10386000351F815059F750E040E060E076E787E28D
:1038700092E00E94EE3830935B0120935A018091D0
:103880005A0190915B0184579F4F08950E940C1C30
:103890009C0150E040E08F366FE09607D0F028564C
:1038A000304141095109ACEEBFEF0E94E93826E0F2
:1038B0003FEF4FEF5FEF0E94BC38DA01C9018C592E
:1038C0009F4FAF4FBF4F8536910510F084E690E0D3
:1038D0000895BC016B507F4064367105A8F42E56E4
:1038E0003F4041095109ACEEBFEF0E94E9382CE995
:1038F0003FEF4FEF5FEF0E94BC38DA01C901805BF8
:103900009F4FAF4FBF4FDFCFBC01675A7E40643639
:103910007105A0F42A503F4041095109ACEEBFEFB8
:103920000E94E9382CE93FEF4FEF5FEF0E94BC386F
:10393000DA01C901CC96A11DB11DC5CF85579E40A6
:10394000C297A0F4265A3E4041095109ACEEBFEFA0
:103950000E94E9382EEC3FEF4FEF5FEF0E94BC383A
:10396000DA01C9018896A11DB11DADCF24573E4093
:1039700041095109ACEEBFEF0E94E9382CE73CEF5A
:103980004FEF5FEF0E94BC38DA01C9014496A11DD8
:10399000B11D99CF0E94461C8F3088F0282F2F50E0
:1039A000330BB901072E000C880B990B0E94893745
:1039B0002AE23CE54FE45FE30E948C39089560E021
:1039C00070E0CB01089580912C02882341F00E9481
:1039D0000C1CBC0190E080E00E94873708950E9493
:1039E000461C682F70E0F6CF8F929F92AF92BF92E5
:1039F000CF92DF92EF92FF920F931F93CF93DF93BB
:103A00000E9422151091870320918403822E912C0D
:103A10004091850350918603A4E8B3E090E080E0F4
:103A200025E0A22E811708F073C0A89EF001A99E80
:103A3000F00D1124E457FC4FC0810C2F0170C1FB25
:103A4000BB24B0F81496EC911497E83028F5F9B03F
:103A5000F0E0E55CFE4FE081EF21F1E009F4F0E0F9
:103A6000A89E6001A99ED00C1124960124573C4FBA
:103A7000E901E881F0FBE1F9E8830F1749F10B1147
:103A800013C017967C936E931697E881E37CE460ED
:103A9000E88301961596C6CFEE3018F4F3B0E850DF
:103AA000D7CFF6B0EE50D4CFE2FFF3CF1696CD903D
:103AB000DC9017979B012C193D094217530748F7D3
:103AC000EB7FFE2FFF7EE5FFF061EF2FE062E0CF9E
:103AD000E2FF13C0E5FD11C01696ED91FC9117971A
:103AE0009B012E1B3F0B8216930638F4F601E45718
:103AF000FC4FC081C37FC860C083A89EF001A99E0F
:103B0000F00D1124E457FC4FC081CF7DC083C1CF9D
:103B1000DF91CF911F910F91FF90EF90DF90CF90A9
:103B2000BF90AF909F908F9008952091870325308C
:103B300020F530E095E0929FA001939F500D112455
:103B4000FA01EC57FC4F84832F5F3F4F929FF001A7
:103B5000939FF00D1124EC57FC4F6083FA01E4575A
:103B6000FC4F90819A7F9160908362E00E9493184D
:103B7000809187038F5F809387030895CF93DF93AE
:103B8000D82FC62F86E70E94D00D6D2F86EA93E0CE
:103B90000E94E71686EA93E00E941B176C2F86E7C7
:103BA0000E942E0E10920103809300038C17F0F3F5
:103BB000DF91CF910895CF9362E00E94BE1D0E94D5
:103BC0001B0EC82F0E941B0E20E03C2FA901482B82
:103BD000CA01CF9108950E94DB1D98278927982755
:103BE000089561E00E94BE1D0E941B0E0895CF93B0
:103BF000DF93D82FC62F86E70E94D00D6D2F86EA5F
:103C000093E00E94E7166C2F86EA93E00E94E71685
:103C100086EA93E00E941B178D2F0E94F11DC813A6
:103C2000EACFDF91CF910895CF92DF92EF92FF928A
:103C300063E00E94BE1D0E941B0E90E0B0E0A0E079
:103C4000CC24D82EE92EFA2E0E941B0EC82AFE2C58
:103C5000ED2CDC2CCC240E941B0EC82AC701B60117
:103C600044E096958795779567954A95D1F7FF90AB
:103C7000EF90DF90CF900895CF9388E60E94D00D0B
:103C800090E080E00E94161780E00E94740D67E0CB
:103C900088E60E942E0E1092010380930003882371
:103CA00009F44DC00E941B0E982F92959770CAE0A0
:103CB0008F709C9F800D1124809365030E941B0EC2
:103CC000982F929597708F709C9F800D11248093F0
:103CD00064030E941B0E982F929593708F709C9F87
:103CE000800D1124809363030E941B0E87708093C4
:103CF00062030E941B0E982F929593708F709C9F69
:103D0000800D1124809361030E941B0E84FB992770
:103D100090F98F709C9F800D1124809360030E9406
:103D20001B0E982F92959F708F709C9F800D112471
:103D300090E08053984F90935F0380935E03CF9100
:103D400008958F929F92AF92BF92CF92DF92EF929F
:103D5000FF9280917203882309F4C9C0EEE5F3E075
:103D600086E693E0208521938E179F07D9F70E945E
:103D70003C170E94790E60936E0370936F038093DB
:103D800070039093710380917603882371F0809182
:103D90007203811108C080916B03813031F48091EE
:103DA0006C03811102C00E946C0FA0917303B0914B
:103DB00074032CE330E00E94AD36C0906E03D090C7
:103DC0006F03E0907003F0907103C60ED71EE81EDB
:103DD000F91EC0926E03D0926F03E0927003F092CE
:103DE0007103809175038823B1F0809177032CE3F0
:103DF0008202C0011124092E000CAA0BBB0BC80EB5
:103E0000D91EEA1EFB1EC0926E03D0926F03E09291
:103E10007003F0927103C0906E03D0906F03E09036
:103E20007003F0907103C701B60120E831E541E06D
:103E300050E00E94EE3849015A0181E0881A910849
:103E4000A108B108C501B4012DEA3EE840E050E008
:103E50000E94EE38C501B401620F731F841F951FC5
:103E600025EB35E040E050E00E94EE38220F331F92
:103E7000220F331F3093670320936603FB016E36D6
:103E800041E0740768F0CB0101976DE671E00E9494
:103E90008536260F371F3093670320936603FC0196
:103EA00020916603309167032115310551F0C90156
:103EB00064E670E00E948536892B19F4309709F08A
:103EC0003197C90160E971E00E948536892BD9F0EC
:103ED000C90164E670E00E948536892B31F081E0EB
:103EE000A90143705527452B79F080E00DC00E9451
:103EF0003C1EEEE5F3E086E693E0219127838E17E2
:103F00009F07D9F736CF81E040E090E061E070E0B4
:103F1000413011F070E060E0689F5001699FB00C83
:103F2000789FB00C1124A42FB0E0A35EBE4F6C911B
:103F30006A0D7B2D711D4F5FE617F70718F0E61B22
:103F4000F70BE4CF409368032053384F3093670357
:103F5000209366033196E0936903C701B60120E818
:103F600031E541E050E00E94EE386B017C012CE32A
:103F7000822E912CA12CB12CA50194010E94EE3827
:103F800060936D03CA01B901A50194010E94EE3846
:103F900060936C03C701B60120E13EE040E050E0D1
:103FA0000E94EE3820936B030E94220F80936A03D5
:103FB00010927203FF90EF90DF90CF90BF90AF9080
:103FC0009F908F90089580917203882371F0EEE5A1
:103FD000F3E086E693E0208521938E179F07D9F7BB
:103FE0000E943C171092720308950E943C1EEEE559
:103FF000F3E08191878383E0E636F807D1F7F2CFCB
:10400000CF92DF92EF92FF92CF93DF93C82F6A0196
:104010007B010E94E31FCC23F9F0C0916B03D09188
:104020006C03C701B6010E943F3A862F2CE3622F32
:104030000E94793690936D038D2F0E94793690936C
:104040006C038C2F68E10E94793690936B0381E0BA
:10405000809372030E94E31F60916D0370E090E013
:1040600080E00E948737DF91CF91FF90EF90DF9043
:10407000CF900895CF92DF92EF92FF92CF93DF938C
:10408000C82F6A017B010E94E31FCC23F9F0D09175
:104090006B0380916D03CCE36C2F0E947936909373
:1040A0006D03C701B6010E943F3A862F6C2F0E9414
:1040B000793690936C038D2F68E10E947936909346
:1040C0006B0381E0809372030E94E31F60916C0395
:1040D00070E090E080E00E948737DF91CF91FF9001
:1040E000EF90DF90CF900895CF92DF92EF92FF9202
:1040F000CF93C82F6A017B010E94E31FCC23F1F00C
:1041000030916C0380916D032CE3622F0E9479360D
:1041100090936D03832F0E94793690936C03C701AF
:10412000B6010E943F3A862F68E10E94793690934B
:104130006B0381E0809372030E94E31F60916B0325
:1041400070E090E080E00E948737CF91FF90EF9081
:10415000DF90CF900895CF92DF92EF92FF92CF93AE
:10416000C82F6A017B010E94E31FCC2379F0C701AD
:10417000B6010E943F3A462F609168038091660322
:10418000909167030E9471140E94E31F609169037C
:1041900070E090E080E00E948737CF91FF90EF9031
:1041A000DF90CF900895CF92DF92EF92FF92CF935E
:1041B000C82F6A017B010E94E31FCC2371F0C70165
:1041C000B6010E943F3A4091690380916603909145
:1041D00067030E9471140E94E31F6091680370E0FE
:1041E00090E080E00E948737CF91FF90EF90DF90C2
:1041F000CF900895CF92DF92EF92FF92CF93C82F86
:104200006A017B010E94E31FCC2381F0C701B60144
:104210000E943F3A862F90E04091690360916803C5
:104220008053984F0E9471140E94E31F60916603AF
:1042300070916703605D774090E080E00E9487376F
:10424000CF91FF90EF90DF90CF9008958F929F9243
:10425000AF92BF92FF920F931F93CF93DF93339B45
:10426000B2C080917A008F7780937A0080B780689F
:1042700080BF809164008FEF8093640010920001F2
:1042800089E044E650E060E070E0D0E620E4F22E01
:10429000009104011091050130E020E0041715079A
:1042A0002607370708F0A6C0982F9064C8EFC80FFC
:1042B000C066883008F4C92FE82FF0E0EE0FFF1F2A
:1042C000EC5FFE4FDF010081118130E020E0041738
:1042D00015072607370708F08BC09091030192302D
:1042E00040F090917A009F7790937A0090B7906811
:1042F00090BF8A3050F4F894909160009861909348
:104300006000C09360007894A89590910301990F84
:10431000916093BF90910201992309F466C088953A
:1043200013BE9091640090FD08C090917A0090684F
:1043300090937A0090B79F7790BF0D911C91119741
:1043400030E020E04A015B01801A910AA20AB30A18
:1043500090910001992309F445C0809101018823BF
:10436000E1F080911E0290911F02A0912002B09175
:1043700021028C599F4FAF4FBF4F800F911FA21F3B
:10438000B31F841B950BA60BB70B80931E02909353
:104390001F02A0932002B09321028091640010922A
:1043A000640080917A00806880937A0080B78F776C
:1043B00080BFDF91CF911F910F91FF90BF90AF9081
:1043C0009F908F90089564E670E080E090E0DF9128
:1043D000CF911F910F91FF90BF90AF909F908F90C2
:1043E0000C94F014B501A4016ECFD5BFF5BE97CFE4
:1043F00081504ECF80910101882379F280911E0275
:1044000090911F02A0912002B09121028C599F4FE0
:10441000AF4FBF4FB6CFE62FF0E0EE0FFF1FE80F14
:10442000F91F6591749142E150E087EC91E00E94A0
:10443000793787EC91E0089542E150E0BC0187ECC8
:1044400091E00E94793787EC91E00895CF93DF9354
:10445000CB01BA010E943F3A662309F43EC081E0D5
:104460008093D4078093D5071092F1070E94B80F6C
:104470009091EE078091D507989F800D112460E4FC
:1044800070E0681B710977FF02C06F5F7F4FEB011F
:10449000D595C795DC2FD81B82EF99E10E941C228D
:1044A0006D2F0E94C41383EE99E10E941C226C2F91
:1044B0000E94C4138091EE076091D507869F600D1E
:1044C0001124C60F83ED99E10E941C226C2F0E94DB
:1044D000C4130E94F0170E94AF1860E070E0CB0197
:1044E000DF91CF910895EF92FF920F931F93CF9397
:1044F000DF93EC01062FCA01B901023019F428E05C
:104500002093F1072881223011F42093E9072881B4
:1045100010E0233058F44E81002379F10E94ED1110
:1045200010E01092F10760E070E0CB012D812111C5
:1045300003C060E070E0CB012881222389F0E9808C
:10454000FA802330F8F03B812C813217D9F00E9499
:104550003F3AC7010E940B220023C1F00E9493132F
:1045600081E08093E9071092F107812FDF91CF91CD
:104570001F910F91FF90EF9008950E940F1312E08A
:10458000180FCFCFC7010E941C22E6CF0E94A613AE
:104590001E5F180FE5CFCF93DF93CDB7DEB72F9710
:1045A0000FB6F894DEBF0FBECDBF95E0899FB00176
:1045B00011246055764E45E050E08CE891E00E9471
:1045C0007937ECE8F1E0F0939201E093910180817A
:1045D00081501F861E861D861C8619821B821C82A6
:1045E0008A838D8386EF9EE29B878A8784EF91E0A2
:1045F0009F838E8319861886CE0101960E94BE1570
:104600002F960FB6F894DEBF0FBECDBFDF91CF91CE
:104610000895CF92DF92EF92FF92882331F0CB0181
:10462000BA010E943F3A609331028091310288239F
:1046300079F081500E94C0176091310270E090E0E3
:1046400080E00E948737FF90EF90DF90CF90089531
:104650002DEC3CEC4CE45DE36091C3017091C4012E
:104660008091C5019091C6010E94E8376B017C01E1
:1046700023E333E343E75FE36091BF017091C0013F
:104680008091C1019091C2010E94E8379B01AC0169
:10469000C701B6010E9420396093BF017093C00129
:1046A0008093C1019093C2010E943F3A8FE06D3424
:1046B00024E0720708F0BECF90E080E00E948737C8
:1046C0000E94E43A9B01AC010E9420390E943F3ACB
:1046D000862FB0CF0F931F93CF93DF93882331F0B2
:1046E000DF91CF911F910F910C94E71B06E212E02E
:1046F000C0E2D0E0F80161918F016095CE010E9487
:10470000AE382196C933D105A9F78EEA0E94AC17BD
:104710000E94B80F0E94F01760E083E00E948F149F
:104720000E942621FDCF882379F080913302809367
:1047300059018091340280935801882329F0109206
:104740008A018FEA0E94AC178CE793E00E949615CD
:10475000882301F18CE793E00E948C15809133024D
:10476000882339F0809159018823D1F081508093BA
:10477000590180913402882339F0809158018823AF
:1047800099F081508093580140E050E0BA0180E0F8
:104790000E94681940E050E0BA0180E00C940923BF
:1047A00080E00E946A23E5CF81E080938A018EEA4F
:1047B0000E94AC17E9CF882349F0CB01BA010E94CF
:1047C0003F3A6093340281E00E9493236091340267
:1047D00070E090E080E00E9487370895882349F0D8
:1047E000CB01BA010E943F3A6093330281E00E94FC
:1047F00093236091330270E090E080E00E9487375D
:104800000895CF930E94F41C80918A0180935C01EB
:104810006091870390E080E025E0861708F044C0AF
:10482000289FF001299FF00D1124E457FC4F30819F
:1048300033FD05C034FD03C0019635FFEECF81E0A6
:104840000E94932389E593E00E948C1581E0809378
:104850008B0180915C01811104C0C1E022C00E94E3
:10486000F41C0E94550DC82F8111F9CF7091870358
:1048700090E080E065E0871780F4689F9001699F71
:10488000300D1124F901E457FC4F5081452F50FBA6
:1048900041F9437C40830196EECF89E593E00E9485
:1048A0008C158C2FCF91089580E00E949323C0E057
:1048B000F8CF2F923F924F925F926F927F928F929A
:1048C0009F92AF92BF92CF92DF92EF92FF920F939F
:1048D0001F93CF93DF93CDB7DEB72F970FB6F89422
:1048E000DEBF0FBECDBF88E793E00E9496158823F8
:1048F00009F402C488E793E00E948C158AEF0E94B5
:10490000141E6B017C0154E0F594E794D794C7948E
:104910005A95D1F78091BE029091BF02C81AD90A68
:10492000E108F108A091C402B091C502A701960167
:104930000E94E6389C01552737FD5095452F609120
:10494000C2027091C302072E000C880B990B260F30
:10495000371F481F591FC701B6010E9469364B0116
:104960005C01FAE0B594A79497948794FA95D1F7EF
:104970008092A3029092A402A092A502B092A602F5
:1049800024EF921A21E0A20AB1088092A702909225
:10499000A802A092A902B092AA02A5019401C501A1
:1049A000B4010E9469369C01552737FD5095452F6B
:1049B000A091CE02B091CF020E94E6386B017C013B
:1049C000F594E794D794C794A091CC02B091CD020E
:1049D000A50194010E94E638C60ED71EE81EF91EF6
:1049E00013E0F594E794D794C7941A95D1F7809182
:1049F000CA029091CB02092E000CAA0BBB0B0FE050
:104A0000880F991FAA1FBB1F0A95D1F78C0D9D1DFA
:104A1000AE1DBF1D8093AB029093AC02A093AD027C
:104A2000B093AE0280E090E0A0E1B0E08093AF02EE
:104A30009093B002A093B102B093B20287EF0E94AC
:104A4000141E8090A7029090A802A090A902B09096
:104A5000AA02C090AF02D090B002E090B102F090F4
:104A6000B202A7019601261B370B480B590BB9015F
:104A7000CA012BE0660F771F881F991F2A95D1F76F
:104A8000C090AB02D090AC02E090AD02F090AE02CC
:104A90006C197D098E099F0925E33CE040E050E058
:104AA0000E94B43619012A013B018C839887A0919A
:104AB000C802B091C902A50194010E94E638272FCF
:104AC000382F492F552747FD5A95C501B4010E943B
:104AD00069366B017C014CE0F594E794D794C79458
:104AE0004A95D1F7A091C602B091C702A5019401E1
:104AF0000E94E6386C0D7D1D8E1D9F1D672F782F3F
:104B0000892F992787FD9A95985F2091C00230914F
:104B1000C10250E040E00E94B43603E10E944F37EA
:104B200059016A017B018C019101A201B3018C81C1
:104B300098850E94F03649015A01A091D402B091A3
:104B4000D5020E94E6389B01AC0162E1559547957C
:104B5000379527956A95D1F7C501B4010E9469364A
:104B60006B017C01A091D202B091D302A501940106
:104B70000E94E638C60ED71EE81EF91ECD2CDE2C8C
:104B8000EF2CFF24E7FCFA948091D0029091D1029F
:104B9000092E000CAA0BBB0BE9E0880F991FAA1F76
:104BA000BB1FEA95D1F78C0D9D1DAE1DBF1DFBE00F
:104BB000880C991CAA1CBB1CFA95D1F76C017D01CD
:104BC000C80CD91CEA1CFB1CADE0F594E794D79403
:104BD000C794AA95D1F7C092B302D092B402E092E2
:104BE000B502F092B602C090A302D090A402E09069
:104BF000A502F090A6023CE2D31A31E0E30AF108E4
:104C0000A091BC02B0E0A70196010E94DB384B01E5
:104C10005C014CEFB41A4501BB2497FCB094AB2C5B
:104C2000A091BD020A2E000CBB0BA7010E94E63822
:104C3000BC01992777FD9095892FA50194010E94C9
:104C400069369B01AC01405F5F4F0CE0559547957D
:104C5000379527950A95D1F7A091D602B091D70242
:104C60000E94E638672F782F892F992787FD9A951C
:104C70006093AF027093B0028093B1029093B2023E
:104C8000A091DA02B091DB02A70196010E94E638FA
:104C90006093A7027093A8028093A9029093AA023E
:104CA0008091D8029091D902092E000CAA0BBB0B5F
:104CB000B095A095909581959F4FAF4FBF4F36E02F
:104CC000880F991FAA1FBB1F3A95D1F78093AB029B
:104CD0009093AC02A093AD02B093AE028DEF0E9410
:104CE000DB1D4091AB025091AC026091AD0270911E
:104CF000AE02480F591F611D711D9A01AB016EE094
:104D0000220F331F441F551F6A95D1F78091A702C8
:104D10009091A802A091A902B091AA02281B390B78
:104D20004A0B5B0B7EE055954795379527957A950D
:104D3000D1F72093AB023093AC024093AD02509375
:104D4000AE026091AF027091B0028091B102909179
:104D5000B2020E946936C72ED82EE92EFF24E7FC46
:104D6000FA94A091BB02B0E0A70196010E94DB3843
:104D7000812C912CA12CF8E0BF2EA5019401261BBB
:104D8000370B480B590BDA01C901BD01992777FD93
:104D90009095892F6093AF027093B0028093B10217
:104DA0009093B202A70196010E9469364B015C0103
:104DB0008092B7029092B802A092B902B092BA0261
:104DC0006091A3027091A4028091A5029091A60225
:104DD0000E94893720E030E040EA55E40E948C3997
:104DE0006B017C01C0929301D0929401E0929501F5
:104DF000F092960160E070E0CB01B7FC16C060E075
:104E000070E088EC92E431E08316910430E2A3066E
:104E100033E0B30654F4C501B4010E94893720E0A1
:104E200030E040E056E30E94E8370E943F3A70E0ED
:104E300090E080E00E94873720E030E048EC52E4C8
:104E40000E948C39688779878A879B87609397014E
:104E5000709398018093990190939A016091B302A5
:104E60007091B4028091B5029091B6020E9487378A
:104E70006C837D838E839F8360939B0170939C01E1
:104E800080939D0190939E0160913502709136024E
:104E900090E080E00E9487376C877D878E879F87B0
:104EA00060939F017093A0018093A1019093A20150
:104EB00026EF38E24AE851E4C701B6010E94E8371C
:104EC0004B015C0123E333EB4DE653E4C701B6012C
:104ED0000E9420399B01AC01C501B4010E948C39AC
:104EE0004B015C01688579858A859B850E94E43A3F
:104EF0009B01AC01C501B4010E9420394B015C014A
:104F000023E333EB4DE653E40E94E8372B013C01E9
:104F1000A501940166EF78E28AE891E40E941F39C6
:104F20009B01AC01C301B2010E948C396093A301C3
:104F30007093A4018093A5019093A60123EC35EF13
:104F40004CE851E4C701B6010E94E8374B015C010F
:104F500028EB3EE143E753E4C701B6010E94203944
:104F60009B01AC01C501B4010E948C390E94063A34
:104F70002B013C012EE93AE447E053E36C817D814B
:104F80008E819F810E94E8372EE634E340E85FE39C
:104F90000E9420394B015C012C813D814E815F8153
:104FA0006DEC7CEC8CEE90E40E948C399B01AC01A2
:104FB000C501B4010E941F394B015C012DEC3CEC92
:104FC00048E154E4C301B2010E94E8379B01AC01FF
:104FD000C501B4010E94E8376093AB017093AC0146
:104FE0008093AD019093AE01288539854A855B8514
:104FF0000E94E8372B013C014092AF015092B00172
:105000006092B1017092B20123E333E948E853E4BE
:10501000C701B6010E9420394B015C012AEB39E43B
:105020004CEE5EE3C301B2010E948C39A5019401EC
:105030000E948C396093B7017093B8018093B901D5
:105040009093BA0120EE39EB47E75BE3C301B2016D
:105050000E94E83720E030E048E850E40E941F3921
:10506000A70196010E9420396093A7017093A801BF
:105070008093A9019093AA012C813D814E815F818B
:1050800060E876EE85EC97E40E948C390E94E43A61
:105090009B01AC01C501B4010E94E8372AE43CE061
:1050A0004AEE51E40E94E8376093BB017093BC0163
:1050B0008093BD019093BE012AE43CE04AEE51E4A6
:1050C0006C857D858E859F850E948C39A501940114
:1050D0000E948C390E94063A9B01AC0160E876EE92
:1050E00085EC97E40E948C396093B3017093B4010E
:1050F0008093B5019093B60180911A0190911B01A4
:10510000A0911C0189839A83AB83E091B803E330BB
:1051100008F0D0C0EC0FFD2FF11D81819091B703F5
:10512000899FC001112465E470E00E949936072E22
:10513000000C880B990B0E9489376B017C010E943F
:1051400022158090B9039090BA03A090BB03B09051
:10515000BC03681979098A099B090E9487379B015A
:10516000AC01C701B6010E94823787FFA3C062E08D
:105170008091B2030E942E0E1092010380930003CF
:10518000823009F4F9C186EF9FEF9093B6038093C4
:10519000B5036091B3037091B40390E080E00E9486
:1051A000873725E535E545E55FE30E94E8376B0184
:1051B0007C016091B7036534A9F070E090E080E075
:1051C0000E9489379B01AC0160E070E08AE892E4BC
:1051D0000E948C399B01AC01C701B6010E94E837DF
:1051E0006B017C018091C1039091C203892B71F006
:1051F0002091BD033091BE034091BF035091C00385
:10520000C701B6010E94E8376B017C016091C303BE
:105210007091C4036431710511F1072E000C880BE5
:10522000990B0E94893720E030E040EA51E40E9467
:105230001F3920E030E04AEF54E40E948C399B0192
:10524000AC0160E070E080E89FE30E941F399B01A1
:10525000AC01C701B6010E94E8376B017C01809167
:10526000C9039091CA038434924071F02091C50320
:105270003091C6034091C7035091C803C701B601DE
:105280000E94E8376B017C018091B803823051F4B1
:1052900020E030E040E05FE3C701B6010E94E8375C
:1052A0006B017C01C092C301D092C401E092C501A0
:1052B000F092C6010E94790E6B017C0180913B0245
:1052C00020913C0230E0ECE38E9F200D311D112433
:1052D000032E000C440B550BC701B6010E94EE389B
:1052E000672B682B692B09F079C18091540190914B
:1052F0005501A0915601B0915701C816D906EA068A
:10530000FB0609F46BC1C0925401D0925501E092A2
:105310005601F092570191E080917503811101C00F
:1053200090E08091440190FB80F9809344010E94B9
:10533000461C880F909144019170982B90934401E2
:10534000809177038093450180917303909174035A
:105350009093470180934601C0924801D092490141
:10536000E0924A01F0924B0120E030E048EC52E438
:1053700060919701709198018091990190919A01A3
:105380000E94E8370E943F3A60934C0160919B0174
:1053900070919C0180919D0190919E010E943F3AE5
:1053A00060934D0170934E0180934F0120E030E0F7
:1053B00048EC52E4609193017091940180919501C1
:1053C000909196010E94E8370E94383A70935101FB
:1053D000609350016091C3017091C4018091C50137
:1053E0009091C6010E943F3A70935301609352011D
:1053F0000E948515C0903702D0903802E0903902A3
:10540000F0903A02FFE0DF22EE24FF24C114D10421
:10541000E104F10411F58091370290913802A091D6
:105420003902B0913A028C0D9D1DAE1DBF1D8093B7
:10543000A2039093A303A093A403B093A5030E9497
:1054400067158F3F09F4BDC00E945A1580E20E9483
:105450002E150E944B150E94C11480913702909125
:105460003802A0913902B0913A028093A20390933E
:10547000A303A093A403B093A5030E945A1582E04E
:105480000E942E150E944B1544E4E42E41E0F42EB8
:10549000D7018D917D010E942E15B4E5EB16B1E088
:1054A000FB06B1F70E94C1140E943C1580FDFCCFA1
:1054B0008090370290903802A0903902B0903A0262
:1054C000E0E18E0E911CA11CB11C809237029092DB
:1054D0003802A0923902B0923A020E94C6148FE9B3
:1054E0000E942E158FEF0E942E1590E0B0E0A0E0F4
:1054F000CC24D82EE92EFA2E8FEF0E942E15C82A22
:10550000FE2CED2CDC2CCC248FEF0E942E15C82A0B
:105510000E94C11481E090E0A0E0B0E004C0880FD8
:10552000991FAA1FBB1FCA94D2F788159905AA050F
:10553000BB0540F4109237021092380210923902E3
:1055400010923A022F960FB6F894DEBF0FBECDBF71
:10555000DF91CF911F910F91FF90EF90DF90CF904F
:10556000BF90AF909F908F907F906F905F904F9083
:105570003F902F900C9435158091CB039091CC03E4
:10558000DC01ED91FC910284F385E02D09951092E8
:10559000B3038093B4038091CB039091CC03DC01DF
:1055A000ED91FC910284F385E02D09956091B303A0
:1055B0007091B403680F791F7093B4036093B303C1
:1055C000ECCD2FEFC21AD20AE20AF20AC11430E17E
:1055D000D306E104F10409F01ECF3FCF2F960FB69A
:1055E000F894DEBF0FBECDBFDF91CF911F910F9119
:1055F000FF90EF90DF90CF90BF90AF909F908F90F3
:105600007F906F905F904F903F902F9008958F9272
:105610009F92AF92BF92CF92DF92EF92FF920F9341
:105620001F93CF93DF93D82F0E94A11E0E9459246D
:1056300010918A01112309F44AC00E94262180E0BA
:10564000C091800290917F02C91BCF7309F44DC3B2
:1056500061E070E080E090E00E94F0140E941A1077
:105660008D3409F061C382E50E9401100E941A1076
:10567000C82F0E940110CC3409F0AAC2C4E0C12C8A
:10568000D12C7601FE2CED2CDC2CCC240E941A109F
:10569000C82AC150B9F70E94851584E0CC0CDD1CE6
:1056A000EE1CFF1C8A95D1F7C092A203D092A303EF
:1056B000E092A403F092A503C0E10E9467150E9446
:1056C0000110C150D1F70E94351581E0B9CF8DE4AA
:1056D00093E00E949615882309F4B1CF0E94DC1B49
:1056E00082E08093E907E0906603F0906703C09042
:1056F0006803D09069038EE20E94A312C82FB701FD
:1057000090E080E00E94BE12B82E6C2D70E090E018
:1057100080E00E94BE12082F6D2D70E090E080E0C6
:105720000E94BE120B0D9BE7901B981BCC0F9C1B7D
:1057300096959093D20785E28093D307C7010E9484
:10574000B2118EE20E944F108C2D90E00E94B21197
:105750008EE20E944F108D2D90E00E94B211C1E0A8
:10576000C093E90780912B02813009F435C1882369
:1057700009F41DC1823009F43CC160912A0281E420
:1057800099E10E940B220E9493138091260281309E
:1057900009F462C1882309F438C1823009F475C163
:1057A000833009F49AC180912802813009F4CEC176
:1057B000882309F4A7C1823009F4D7C120E030E082
:1057C00048EC52E46091C3017091C4018091C5011D
:1057D0009091C6010E94E8376B017C0160913D0207
:1057E00070E090E080E00E9487379B01AC01C70128
:1057F000B6010E948C3940E00E940F1363E8680FE5
:1058000041E483E80E94DA1360913D0270E090E089
:1058100080E00E9487379B01AC01C701B6010E945E
:105820008C3940E00E94ED110E94221572FBCC27BA
:10583000C0F94D9905C040E06FEF85EAC11111C074
:105840000E94461C803110F4CC2369F00E94461C53
:105850008C3608F096C16CE00E94793640E06FEF1C
:1058600084560E94DA1344E36FEF81E80E94DA1352
:1058700002E00093D4070093D507FF24F394F0923D
:10588000E907C0906B03D0906C0380E20E94A312E2
:10589000E82E8AE30E94A312E80E60916A0387E46F
:1058A00099E10E940B220E94A613A82E6C2D70E095
:1058B00090E080E00E94BE12B82EC6E7CE19CA1949
:1058C0000093E9076D2D70E090E080E00E94BE1229
:1058D000CB19C81BF092E907C695C093D2078DE09B
:1058E0008093D30760916A0387E499E10E940B22B9
:1058F0000E94931380E20E944F108C2D90E00E9432
:10590000B2118AE30E944F100093E9078D2D90E0B9
:105910000E94B211F092E90780918B01882309F46B
:1059200043C086E08093F20724E0D29FC001112497
:10593000FC01E85AF64ED491FC01E95AF64EC491A6
:10594000FC01EA5AF64E64918B5A964EFC01849102
:105950000E9432108091D207F82EFC1AC81718F056
:10596000FC2EF81AC82F8091D307E82EED1AD8170D
:1059700018F0ED2EE81AD82F8091F20782FF03C1AC
:10598000F394612F6D0F8C2F0E9432106F2D80E0E9
:105990000E9401141F5FE116A0F789E593E00E94C1
:1059A0009615811110928B010E94F01748CE40E0AD
:1059B00050E0BA0180E00E94BC1B6B017C0141E019
:1059C0000E940F13C093D2071092D30741E0C70182
:1059D000B6010E94ED11D1CE40E061E08DEA0E9457
:1059E000DA1340E050E0BA0180E00E949C1B41E0E5
:1059F000F0CF40E061E082E80E94DA1340E050E03E
:105A0000BA0180E00E947C1BF2CF20E030E048EC3D
:105A100052E4609197017091980180919901909161
:105A20009A010E94E8376B017C0140E00E940F134D
:105A3000C82F85E20E94A3128C0F64E8680F40E033
:105A400082E80E94DA1340E0C701B6010E94ED111E
:105A500085E20E944F10A7CEC090B701D090B80148
:105A6000E090B901F090BA0141E0C701B6010E948F
:105A70000F1363E8680F40E082E80E94DA1341E008
:105A8000C701B6010E94ED118ECE40E050E0BA0190
:105A900080E00E947C1B4B015C0160912A0281E442
:105AA00099E10E940B227C0141E0C501B4010E94F2
:105AB0000F13C82FC7010E94A6138C0F64E8680F4C
:105AC00040E082E80E94DA1341E0C501B4010E947F
:105AD000ED11C7010E94931366CEC090AF01D09024
:105AE000B001E090B101F090B20140E0C701B60111
:105AF0000E940F1363E8680F40E082E80E94DA1307
:105B000040E0BECF41E461E084E80E94DA13C09136
:105B10002702C13091F42CEB37EC45EF5BE3609149
:105B20009B0170919C0180919D0190919E010E942A
:105B3000E8374C2F0E94ED1141CE60919B0170918E
:105B40009C0180919D0190919E01F3CF41E461E021
:105B50008CEA0E94DA136091BB017091BC018091C4
:105B6000BD019091BE0141E0E5CF41E461E086EAEC
:105B70000E94DA1340E050E0BA0180E00E94AA1AC5
:105B8000F2CF88E06BCE6D2F8C2F0E9432106F2DDC
:105B900080E00E9401146E2D6D0F81E08C0F0E9439
:105BA00032106F2D80E00E94011461E06D0F8C2F88
:105BB0000E9432106E2D81E00E9401146D2F8F2DF6
:105BC0008C0F0E9432106E2D81E00E940114E5CEF0
:105BD000C334E9F520E030E048EC52E460919701ED
:105BE000709198018091990190919A010E94E837F3
:105BF0000E943F3A0E94F71B60919B0170919C01AB
:105C000080919D0190919E010E943F3A0E94F71B56
:105C100020E030E048EC52E46091930170919401EF
:105C200080919501909196010E94E8370E943F3A39
:105C30000E94F71B6091C3017091C4018091C5015E
:105C40009091C6010E943F3A0E94F71B3ECDC93495
:105C500029F580E999E10E941C220E94051080E04C
:105C60000E9401108CE799E10E941C220E940510FD
:105C700080E00E94011081E799E10E941C220E94AD
:105C8000051080E00E94011087E899E10E941C2223
:105C90000E94051080E00E94011017CDC33551F419
:105CA000C6E2D2E089910E940110F2E0CF33DF0713
:105CB000C9F70BCDC43591F40E94A11E0E94790E44
:105CC000172FD82FC92F862F0E940110812F0E94D5
:105CD00001108D2F0E9401108C2FDDCFC53409F0EB
:105CE000F4CC0E94AF188BE2D6CF8823E9F08DE484
:105CF00093E00E948C150E94DC1B8EE999E10E94C2
:105D00001C226FEF0E94C4130E94F0178C2FDF91AA
:105D1000CF911F910F91FF90EF90DF90CF90BF90A8
:105D2000AF909F908F9008950E940124811102C02E
:105D3000C0E0ECCF6091870350E040E095E046176B
:105D400058F150E040E095E04617D0F49A014F5FDB
:105D50005F4F929FF001939FF00D1124E457FC4F89
:105D6000808184FFF1CF8F7E8083949FF001959F87
:105D7000F00D1124EC57FC4F8081C1E0853031F2E9
:105D80000E94550D813081F1823021F0833061F124
:105D9000843071F6C5E0BACF9A014F5F5F4F929F92
:105DA000F001939FF00D1124E457FC4F808183FF95
:105DB000C6CF877F8083949FF001959FF00D1124BB
:105DC000EC57FC4F8081C2E0853009F49FCF8130D1
:105DD00049F0823029F0833029F0843009F0B1CFC6
:105DE000C3E094CFC4E092CFC6E090CF2F923F9211
:105DF0004F925F926F927F928F929F92AF92BF92DB
:105E0000CF92DF92EF92FF920F931F93CF93DF9386
:105E1000CDB7DEB72A970FB6F894DEBF0FBECDBF61
:105E200089830E94A11E0E94592420908A01222069
:105E300001F10E9426210E9401248111CDC180E040
:105E40002A960FB6F894DEBF0FBECDBFDF91CF917B
:105E50001F910F91FF90EF90DF90CF90BF90AF9088
:105E60009F908F907F906F905F904F903F902F907A
:105E70000895E0919101F09192018981A4E08A9FB7
:105E8000C001112461817281680F791F44E050E0E4
:105E90008DE591E00E9479370E94DC1BE091910131
:105EA000F0919201838194810E941C2260E00E9403
:105EB000C41380915D0190915E010E941C2261E4F7
:105EC0000E94C41381E593E00E949615882351F047
:105ED00081E593E00E948C158091180181508370B8
:105EE00080931801909118019983692F6E5F41E4A6
:105EF0008BE80E94DA1369816D5741E48BE90E94B7
:105F0000DA1360915F017091600161157105C9F14B
:105F10004BE150E081E691E00E947937A0911901B0
:105F2000AC838091890190916101943091F581E079
:105F30008093D4078093D5078091EE07BFE3B81B09
:105F4000B695B81BB98301E611E08CE7E82E81E035
:105F5000F82EF801818192810E941C2269810E94A1
:105F6000C4139091EE078091D507989F800D11245E
:105F70008150F981F80FF983075F1F4FE016F10692
:105F800041F71092890181E0809319010E94F01776
:105F900052CF882329F0809188018F5F80938801F8
:105FA00082E08093D4078093D50781E691E09A83BD
:105FB0008983ACE7B1E0BE83AD83BA87A9878C0142
:105FC000312CF0E8FB83D8011796ED91FC913097C6
:105FD00059F040E050E0BA0180E00995E985FA8582
:105FE0006083718382839383D80115966C91B091FD
:105FF0008801BF83E1E0E30DE887662309F4D6C09A
:106000003B121AC0A985BA85CD90DD90ED90FC9029
:10601000BC81B111A7C070E090E080E00E94893798
:106020009B01AC01C701B6010E941F39E985FA85C1
:106030006083718382839383E985FA858080918070
:10604000A280B380D80114966C91062E000C770BB9
:10605000880B990B0E9489376B017C01F8016381E1
:10606000062E000C770B880B990B0E9489372B01A9
:106070003C01A7019601C501B4010E94953A18168A
:106080000CF085C0A985BA854D925D926D927C9287
:106090001397FF813F1211C02C81213071F0D8017C
:1060A0001796ED91FC91309741F0A985BA854D91F5
:1060B0005D916D917C9181E009958091880183309B
:1060C00010F010928801D8018C91882351F0E98555
:1060D000FA85208131814281538160E0C8010E94AC
:1060E0007322FB81F81BFB83075F1F4F89859A850D
:1060F00004969A878987388493E0391264CF8F2F6A
:106100008695F13808F080E06FEF0E943210A1E030
:10611000A20DAB8380918801821509F44EC061E025
:10612000A981BA818C91882349F0ED81FE8120817B
:10613000318142815381CD010E9473228D819E81E4
:1061400004969E838D83A981BA811996BA83A98307
:106150002B80B3E02B12DBCF81E08093D4078093B8
:10616000D5070FCFFC81F23009F066CF70E090E0E8
:1061700080E00E948937A70196010E942039A985F5
:10618000BA856D937D938D939C93139755CFA301FF
:106190009201C501B4010E94823787FF7ACFE98559
:1061A000FA85C082D182E282F38273CFBF813B1233
:1061B00084CFE885E093880180CFE981FA818581E9
:1061C00062E08111ADCFFB81F33019F0F0938801CB
:1061D000A6CF10928801A3CF6091870350E040E0E2
:1061E00095E0461708F063C09A014F5F5F4F929F9A
:1061F000F001939FF00D1124E457FC4F808183FF41
:10620000F0CF877F8083949FF001959FF00D11243C
:10621000EC57FC4F2081298381E09981953009F06A
:1062200080E080938901A98184E0A13009F408CE3F
:1062300083E0A23009F404CE50E040E095E0461738
:10624000C8F49A014F5F5F4F929FF001939FF00D4A
:106250001124E457FC4F808184FFF1CF8F7E80832F
:10626000949FF001959FF00D1124EC57FC4F808115
:10627000853031F10E94550D8B83813019F18230C8
:1062800019F185E593E00E949615882339F085E59C
:1062900093E00E948C15BB81B111B983E981E33091
:1062A00041F4809119018F5F80931901C8CD198243
:1062B000B3CFF981809119018150F430A9F3BFCD9A
:1062C00081E0BECD86E0BCCD85E0BACD1F921FB681
:1062D0001F9211248F939F93AF93BF9380911E02BF
:1062E00090911F02A0912002B09121020196A11D60
:1062F000B11D80931E0290931F02A0932002B093C1
:10630000210280911D0293E0980F9D37E8F490934D
:106310001D028091220290912302A0912402B0914B
:1063200025020196A11DB11D8093220290932302A4
:10633000A0932402B0932502BF91AF919F918F91BA
:106340001F901FBE1F9018958A5780931D02809141
:106350001E0290911F02A0912002B091210201968D
:10636000A11DB11D80931E0290931F02A0932002D5
:10637000B0932102CECF1F921FB61F9211248F938C
:106380009F93EF93FF939091A2028091A10298179F
:1063900089F0E091A102F0E0EF57FD4F90818091EC
:1063A000A1028F5F8093A102803210F01092A102AF
:1063B0009093C600FF91EF919F918F911F901FBE08
:1063C0001F9018952F932FB72F938F939F93EF9331
:1063D000FF939091C000892F847092FF0AC0809132
:1063E000C600FF91EF919F918F912F912FBF2F9119
:1063F00018959091C600209180022F3318F4809157
:1064000080028F5F20917F02281759F3E09180026C
:10641000F0E0E15CFD4F908380938002E2CF1F9219
:106420001FB61F9211248F93EF93FF9381E0809307
:106430001C02E0E6F0E08081886180831082A895EC
:10644000FF91EF918F911F901FBE1F9018951F9283
:106450000F920FB60F9211242F933F934F935F9398
:106460006F937F938F939F93AF93BF93EF93FF931C
:106470008091B900887F803609F44AC0F0F58832EF
:1064800009F4A7C018F5803109F49BC0B8F488233B
:1064900009F4F9C0883009F494C0FF91EF91BF91DD
:1064A000AF919F918F917F916F915F914F913F91AC
:1064B0002F910F900FBE0F901F901895883109F4FF
:1064C00088C0803251F78093260314C0803409F4C9
:1064D0009DC040F48033B9F38833F9F680932603E6
:1064E00085ECB0C0803509F485C0883509F496C0C4
:1064F000883499F60E947916D0CF883909F48CC077
:1065000038F5883729F050F4883611F0803729F6AD
:1065100083E08093280310921B0257C0883809F447
:106520007BC0803919F0803809F0B7CF80911B0209
:10653000803208F071C0E0911B0281E08E0F8093E1
:106540001B028091BB00F0E0E550FE4F80833DC010
:10655000803B39F0E0F4803A09F479C0883A09F0D8
:106560009CCF84E0809328031092FA011092F901E5
:10657000E091FE02F091FF0209958091F9018111ED
:106580000FC081E08093F9011092D90109C0803CCD
:1065900009F4A6CF883C09F4A3CF883B09F07DCF4E
:1065A000E091FA0181E08E0F8093FA01F0E0E7526A
:1065B000FE4F80818093BB009091FA018091F90198
:1065C00029C0809103038093BB0085EC8093BC00BD
:1065D00064CF9091250380912403981758F5E0919A
:1065E000250381E08E0F80932503F0E0EC5FFC4FE4
:1065F0008081E9CFE091250381E08E0F8093250310
:106600008091BB00F0E0EC5FFC4F8083909125030C
:10661000809124039817C8F285E8D8CFE09125032C
:1066200081E08E0F809325038091BB00F0E0EC5F4A
:10663000FC4F80838091270381115CCF81E08093A0
:10664000020384EA8093BC001092280326CF85ECD5
:106650008093BC001092280380911B02803230F49A
:10666000E0911B02F0E0E550FE4F108260911B02AA
:1066700070E0E091FC02F091FD028BEF91E0099552
:1066800010921B020ACF1092260334CFCF931092A0
:10669000A9031092A80388EE93E0A0E0B0E08093F5
:1066A000AA039093AB03A093AC03B093AD038DE228
:1066B00091E09093A7038093A60368EB7BE089E5C4
:1066C00093E00E94AD1564E670E085E593E00E94DA
:1066D000AD1568EC70E081E593E00E94AD1564EFC4
:1066E00071E08DE493E00E94AD15C1E0C093E9072D
:1066F0001092B9031092BA031092BB031092BC031C
:1067000080E090E0A0E8BFE38093BD039093BE03D8
:10671000A093BF03B093C0031092C2031092C103B1
:1067200024E130E03093C4032093C3038093C50376
:106730009093C603A093C703B093C80384E492E088
:106740009093CA038093C90383E28093B20386EADD
:1067500093E09093CC038093CB030E94DC0D1092C6
:10676000B4031092B3031092B6031092B50385E4FC
:106770008093B703C093B8038AE08093A10361E0DC
:106780000E945D1861E08091A1030E948F142FB7D1
:10679000F89480915D03811123C0EAE4FAE18491C9
:1067A000E6E3FAE19491E82FF0E0EE0FFF1FEE5DD3
:1067B000F54EA591B491EC91E92331F480918000DC
:1067C0008F7D809380002A9A229A2A988CB58061C6
:1067D0008CBD8CB580648CBD259A2D98239A2B98FE
:1067E00080915D038F5F80935D032FBF8CB5837FA6
:1067F0008CBD8CB58F7D8CBD8CB58C7F8CBD8DB5E3
:1068000081608DBD0E94C61486E60E942E150E94EE
:10681000C1140E94C61489E90E942E150E94C11459
:106820001092A2031092A3031092A4031092A50346
:106830008CEB92E0909386038093850310928703FC
:10684000E8E8F3E089E1DF011D928A95E9F760ED60
:1068500077E080E893E00E94AD1568EE73E08CE786
:1068600093E00E94AD1560ED77E088E793E00E9429
:10687000AD1510927203109274031092730310926C
:1068800075031092760310927703CF910895CDB7D8
:10689000DEB72F970FB6F894DEBF0FBECDBFF894CA
:1068A00082E880937A0083E084BD85BD80916E008C
:1068B000816080936E0081E0809380009BE09093E4
:1068C00081008093B00084E08093B1001092C100F9
:1068D00078940E94E71BA6E2EA2EA2E0FA2E00E2DC
:1068E00010E0C8010E94A6388095F70181937F01CE
:1068F0000F5F1F4F09331105A1F781E00E94932319
:1069000080E69EEAAAE0B0E08093CE039093CF03A6
:10691000A093D003B093D1030E94DC0D2091CE034D
:106920003091CF034091D0035091D10360E074E2E5
:1069300084EF90E00E94EE3820513109410951095D
:1069400056954795379527952093B8008CE380930B
:10695000CD030E94D00D86EA93E00E941B1781119F
:106960001AC003E01AE1E2E2EE2EEAE1FE2EF8019F
:1069700084910E94AC170F5F1F4FE016F106B9F724
:106980001092F2071092F10781E08093D407809370
:10699000D5070E94B80F0E94F01781EE96E0909301
:1069A000EB078093EA0781E08093EC078AE080930D
:1069B000ED071CE01093EE0785E18093EF0780E27E
:1069C0008093F0078FEF9FE39093D8078093D707CA
:1069D0000E94DC0D1093B80088E60E94D00D86EA74
:1069E00093E00E941B170E94A11E809176038111E3
:1069F0000E946C0F1092720380912D028093770396
:106A000080912E0291E0813009F090E0909375031F
:106A100091E0823009F090E090937603823011F497
:106A20000E946C0F80912F0290913002909374031A
:106A3000809373030E94DC0D62E070E080E090E0E0
:106A40000E94F01480ED0E94F11D803609F0CCC048
:106A500086E70E94D00D60EE86EA93E00E94E7167A
:106A600066EB86EA93E00E94E71686EA93E00E94CE
:106A70001B1762E070E080E090E00E94F01488E86C
:106A80000E94EB1D9093BF028093BE028AE80E9491
:106A9000EB1D9093C3028093C2028CE80E94EB1D11
:106AA0009093C5028093C4028EE80E94EB1D9093E0
:106AB000C1028093C00280E90E94EB1D9093C7023F
:106AC0008093C60282E90E94EB1D9093C9028093D5
:106AD000C80284E90E94EB1D9093CB028093CA0206
:106AE00086E90E94EB1D9093CD028093CC0288E949
:106AF0000E94EB1D9093CF028093CE028AE90E9400
:106B0000EB1D9093D1028093D0028CE90E94EB1D83
:106B10009093D3028093D2028EE90E94EB1D909352
:106B2000D5028093D40281EA0E94F11D8093BB02BA
:106B300081EE0E94EB1D9093D7028093D60283EEE4
:106B40000E94F11D8093BC0284EE0E94F11D182F5B
:106B500085EE0E94F11D212F30E0322F22278295F1
:106B6000807F280F311D3093D9022093D80286EE02
:106B70000E94F11D182F85EE0E94F11D212F30E09B
:106B8000322F2227820F932F911D9093DB02809347
:106B9000DA0287EE0E94F11D8093BD028091D80237
:106BA0009091D90264E0959587956A95E1F7909365
:106BB000D9028093D8028091DA029091DB0274E0CE
:106BC000959587957A95E1F79093DB028093DA02A9
:106BD00063E082EF0E94F71D67E584EF0E94F71DD6
:106BE0006CE685EF0E94F71D80E00E941E1781E091
:106BF0008093B80380E10E941E170E9422156093C3
:106C0000B9037093BA038093BB039093BC0385E4EC
:106C10008093B70382E40E941E1785E60E941E1728
:106C20001092870363E084E00E94951D64E087E092
:106C30000E94951D61E088E00E94951D62E089E058
:106C40000E94951D65E082E00E94951D1092C5008E
:106C500080E18093C40082E08093C00088ED80933F
:106C6000C10086E08093C20010927F0210928002E1
:106C70001092A1021092A20280913E02811105C0E1
:106C8000409A61E08EE00E945D1816E08BECA82E21
:106C900082E2B82E97E0C92E9BE2D92E24EFE22E95
:106CA000FF24F3941F861E8619821B821C821A837E
:106CB0001D83BD86AC86DB86CA86FF82EE8219867E
:106CC0001886CE0101960E94BE1580E00E946A23BC
:106CD000E9CFDB018F939F930E94DB38BF91AF9187
:106CE000A29F800D911DA39F900DB29F900D112426
:106CF0000895991B79E004C0991F961708F0961B18
:106D0000881F7A95C9F780950895AA1BBB1B51E18E
:106D100007C0AA1FBB1FA617B70710F0A61BB70B0B
:106D2000881F991F5A95A9F780959095BC01CD01B0
:106D3000089597FB072E16F4009407D077FD09D02D
:106D40000E94853607FC05D03EF4909581959F4FB3
:106D50000895709561957F4F08950E941039B7FF8F
:106D60000895821B930B089597FB57FF0C94C4362C
:106D70009F938F930E94C4366E1B7F0BAF91BF9180
:106D80008A0B9B0B0895E894DF93CF93FC01DB0102
:106D90000E9410397F936F93E9019A01AC01BF9370
:106DA000AF933F932F93DF010E94103926F46C1BA1
:106DB0007D0B820B930B9E01EB01FC010E9470374F
:106DC000AF91BF912F913F910E947037BE01CF01CB
:106DD000F9012F913F91CF91DF910895689401C0FF
:106DE000E8948F929F92CF93DF930E94FC36DF91BD
:106DF000CF919F908F90089588249924F401E40105
:106E0000B0E49F93AA279A158B049C04ED05FE0518
:106E1000CF05D007A10798F4AD2FDC2FCF2FFE2F81
:106E2000E92D982C892E982F872F762F652F542F98
:106E3000432F322F2227B85031F7BF9127C01B2E86
:106E4000BF91BB27220F331F441F551F661F771F9B
:106E5000881F991F881C991CEE1FFF1FCC1FDD1F68
:106E6000AA1FBB1F8A149B04EC05FD05CE05DF0598
:106E7000A007B10748F08A189B08EC09FD09CE0964
:106E8000DF09A00BB10B21601A94E1F62EF49401F6
:106E9000AF01BE01CD01000C089597FD1094002EA6
:106EA000083098F00850232F342F452F562F672F86
:106EB000782F892F912DF4CF1594979587957795F5
:106EC000679557954795379527950A95AAF7112401
:106ED000002D0895EE0FFF1F0590F491E02D099409
:106EE0000E941039460F571FC81FD91F08F431964A
:106EF0000895FB01DC0102C005900D924150504005
:106F0000D8F708950E94C43708F481E00895E89402
:106F100009C097FB3EF490958095709561957F4FE1
:106F20008F4F9F4F9923A9F0F92F96E9BB2793958F
:106F3000F695879577956795B795F111F8CFFAF49F
:106F4000BB0F11F460FF1BC06F5F7F4F8F4F9F4FD0
:106F500016C0882311F096E911C0772321F09EE82E
:106F6000872F762F05C0662371F096E8862F70E094
:106F700060E02AF09A95660F771F881FDAF7880F6E
:106F80009695879597F90895990F0008550FAA0BC4
:106F9000E0E8FEEF16161706E807F907C0F012162C
:106FA0001306E407F50798F0621B730B840B950B2F
:106FB00039F40A2661F0232B242B252B21F4089584
:106FC0000A2609F4A140A6958FEF811D811D089521
:106FD0000E94FB370C946C380E945E3838F00E9497
:106FE000653820F0952311F00C9455380C945B38DB
:106FF00011240C94A0380E947D3870F3959FC1F342
:10700000950F50E0551F629FF001729FBB27F00D56
:10701000B11D639FAA27F00DB11DAA1F649F6627AB
:10702000B00DA11D661F829F2227B00DA11D621FFA
:10703000739FB00DA11D621F839FA00D611D221FB4
:10704000749F3327A00D611D231F849F600D211D98
:10705000822F762F6A2F11249F5750409AF0F1F01B
:1070600088234AF0EE0FFF1FBB1F661F771F881F84
:1070700091505040A9F79E3F510580F00C9455382F
:107080000C94A0385F3FE4F3983ED4F3869577954F
:107090006795B795F795E7959F5FC1F7FE2B880F2A
:1070A000911D9695879597F9089597F99F6780E8C0
:1070B00070E060E008959FEF80EC089500240A944A
:1070C0001616170618060906089500240A941216C3
:1070D0001306140605060895092E0394000C11F4F6
:1070E000882352F0BB0F40F4BF2B11F460FF04C0A3
:1070F0006F5F7F4F8F4F9F4F089557FD9058440FFC
:10710000551F59F05F3F71F04795880F97FB991F06
:1071100061F09F3F79F087950895121613061406C3
:10712000551FF2CF4695F1DF08C016161706180650
:10713000991FF1CF86957105610508940895E8942B
:10714000BB2766277727CB0197F90895F999FECFDA
:1071500092BD81BDF89A992780B50895262FF99997
:10716000FECF1FBA92BD81BD20BD0FB6F894FA9A2A
:10717000F99A0FBE01960895052E97FB1EF4009410
:107180000E94D33857FD07D00E94EE3807FC03D089
:107190004EF40C94D33850954095309521953F4F3F
:1071A0004F4F5F4F089590958095709561957F4FF3
:1071B0008F4F9F4F08950E941039A59F900DB49F47
:1071C000900DA49F800D911D11240895B7FF0C947C
:1071D000DB380E94DB38821B930B0895A1E21A2E44
:1071E000AA1BBB1BFD010DC0AA1FBB1FEE1FFF1F6B
:1071F000A217B307E407F50720F0A21BB30BE40BBB
:10720000F50B661F771F881F991F1A9469F7609501
:107210007095809590959B01AC01BD01CF010895BB
:10722000A29FB001B39FC001A39F700D811D1124C7
:10723000911DB29F700D811D1124911D089550580C
:10724000BB27AA270E9437390C946C380E945E38FD
:1072500038F00E94653820F039F49F3F19F426F485
:107260000C945B380EF4E095E7FB0C945538E92F4D
:107270000E947D3858F3BA17620773078407950791
:1072800020F079F4A6F50C949F380EF4E0950B2EBF
:10729000BA2FA02D0B01B90190010C01CA01A00168
:1072A0001124FF27591B99F0593F50F4503E68F1C3
:1072B0001A16F040A22F232F342F4427585FF3CF04
:1072C000469537952795A795F0405395C9F77EF4D5
:1072D0001F16BA0B620B730B840BBAF09150A1F01E
:1072E000FF0FBB1F661F771F881FC2F70EC0BA0FA4
:1072F000621F731F841F48F4879577956795B7952C
:10730000F7959E3F08F0B0CF9395880F08F0992726
:10731000EE0F9795879508950E94A0390C946C38CC
:107320000E94653858F00E945E3840F029F45F3FB3
:1073300029F00C94553851110C94A0380C945B38FA
:107340000E947D3868F39923B1F3552391F3951B7F
:10735000550BBB27AA2762177307840738F09F5F76
:107360005F4F220F331F441FAA1FA9F335D00E2EE3
:107370003AF0E0E832D091505040E695001CCAF750
:107380002BD0FE2F29D0660F771F881FBB1F261713
:1073900037074807AB07B0E809F0BB0B802DBF01EA
:1073A000FF2793585F4F3AF09E3F510578F00C94B9
:1073B00055380C94A0385F3FE4F3983ED4F386959B
:1073C00077956795B795F7959F5FC9F7880F911DDA
:1073D0009695879597F90895E1E0660F771F881FC6
:1073E000BB1F621773078407BA0720F0621B730B79
:1073F000840BBA0BEE1F88F7E095089529F416F078
:107400000C9455380C949F380C945B380E94853846
:10741000A8F39638A0F707F80F92E8942BE33AEA1E
:1074200048EB5FE70E94FE370F920F920F924DB725
:107430005EB70F920E942C3BE8E6F0E00E946E3AA5
:107440004F915F91EF91FF91E595EE1FFF1F49F07E
:10745000FE57E0684427EE0F441FFA95E1F7419587
:10746000550B0E94A63A0F9007FE0C949A3A089585
:107470000E943F3A6894B1110C94A03808950E947C
:10748000853888F09F5798F0B92F9927B751B0F0F9
:10749000E1F0660F771F881F991F1AF0BA95C9F798
:1074A00014C0B13091F00E949F38B1E008950C945F
:1074B0009F38672F782F8827B85F39F0B93FCCF312
:1074C000869577956795B395D9F73EF49095809515
:1074D000709561957F4F8F4F9F4F0895DF93CF93A6
:1074E0001F930F93FF92EF92DF927B018C016894C0
:1074F00006C0DA2EEF010E94FB37FE01E894A59149
:107500002591359145915591A6F3EF010E943739A8
:10751000FE019701A801DA9469F7DF90EF90FF90E0
:107520000F911F91CF91DF9108950E94C43708F405
:107530008FEF08959B01AC0160E070E080E89FE36D
:107540000C948C390C9455380C94603B0E9485380F
:10755000D8F39923C9F3940F511DA3F391505040D0
:1075600094F059F0882332F0660F771F881F9150EE
:107570005040C1F79E3F51052CF7880F911D9695FD
:10758000879597F908955F3FACF0983E9CF0BB2734
:10759000869577956795B79508F4B1609395C1F78F
:1075A000BB0F58F711F460FFE8CF6F5F7F4F8F4F2D
:1075B0009F4FE3CF0C94A03816F00C94603B0C94D2
:1075C0005B3868940C9455380E948538A8F3992349
:1075D000C1F3AEF3DF93CF931F930F93FF92C92FA5
:1075E000DD2788232AF02197660F771F881FDAF797
:1075F00020E030E040E85FEB9FE3883920F0803EF8
:1076000038F021968F770E942039E0E9F0E004C03D
:107610000E942039EDEBF0E00E946E3A8B01BE0132
:10762000EC01FB2E6F5771097595771F880B990B2D
:107630000E94893728E132E741E35FE30E94FB378C
:10764000AF2D9801AE01FF900F911F91CF91DF9167
:107650000E9437390C946C38FA01DC01AA0FBB1F69
:107660009B01AC01BF5728F42227332744275078C9
:1076700020C0B75190F4AB2F00244695379527953D
:10768000011CA395D2F3002071F0220F331F441F79
:10769000B395DAF30ED00C941F3961307105A0E870
:1076A0008A07B94630F49B01AC0166277727882703
:1076B0009078309621F0208331834283538308955C
:1076C0009F3F31F0915020F4879577956795B79556
:1076D000880F911D9695879597F90895F894FFCF97
:1076E00000010002100020004000800000010002A4
:1076F000000400080010002001011078781F1C1FF2
:107700001E1F1E1F1F1E1F1E1F00000000E716BAAF
:10771000165A18AA16720E080EAB160102040810AB
:047720002040800085
:107E000001C0DCC0112484B7882361F0982F9A70D8
:107E1000923041F081FF02C097EF94BF282E80E09E
:107E2000B8D0EEC085E08093810082E08093C000EE
:107E300088E18093C10086E08093C20080E1809356
:107E4000C4008EE0A6D0259A86E020E33CEF91E0C6
:107E5000309385002093840096BBB09BFECF1D9A83
:107E6000A8954091C00047FD02C0815089F7EE24DB
:107E7000E39495E0D92E21E1C22E7FD0813461F4C4
:107E80007CD0182F8CD01238E9F0113811F488E02A
:107E900001C083E06BD067C0823411F484E103C079
:107EA000853419F485E083D05EC0853539F465D01A
:107EB000C82F63D0D82FCC0FDD1F54C0863521F4D6
:107EC00084E075D080E0E6CF843609F02EC055D02E
:107ED00054D0F82E52D0B82E00E011E04ED0F80168
:107EE00081938F01FE12FACF5AD0F5E4BF1201C080
:107EF000FFCF83E0FE0187BFE89507B600FCFDCF0A
:107F0000A0E0B1E0FE018D919D910C01E7BEE895E6
:107F100011243296FA12F7CFFE01D7BEE89507B6C4
:107F200000FCFDCFC7BEE8951EC0843771F425D094
:107F300024D0F82E22D033D08E01F80185918F0104
:107F400015D0FA94F110F9CF0EC0853739F427D047
:107F50008EE10CD085E90AD08FE09CCF813511F4F9
:107F600088E017D01CD080E101D087CF9091C0006D
:107F700095FFFCCF8093C60008958091C00087FFD5
:107F8000FCCF8091C00084FD01C0A8958091C600FF
:107F90000895E0E6F0E098E1908380830895EDDFB6
:107FA000803219F088E0F5DFFFCF84E1DFCFCF9397
:107FB000C82FE3DFC150E9F7CF91F1CFFC010A01EF
:107FC00067BFE895112407B600FCFDCF667029F065
:0C7FD000452B19F481E187BFE895089566
:027FFE00000879
:00000001FF
